:100000000C94B6000C94D7000C94D7000C94D70035
:100010000C94D7000C94D7000C94D7000C94D70004
:100020000C94D7000C94D7000C94D7000C94D700F4
:100030000C94D7000C94D7000C94D7000C94D700E4
:100040000C94D7000C94D7000C94D7000C94D700D4
:100050000C9445240C94D7000C94D7000C94D70032
:100060000C94D7000C94D7000C94D7000C94D700B4
:100070000C94D7000C94D7000C94D7000C94D700A4
:100080000C94D7000C94D7000C94D7000C94D70094
:100090000C94D7000C94D7000C94D7000C94D70084
:1000A0000C94D7000C94D7000C94D7000C94D70074
:1000B0000C94D7000C94D7000C94D7000C94D70064
:1000C0000C94D7000C94D7000C94D7000C94D70054
:1000D0000C94D7000C94D7000C94D7000C94D70044
:1000E0000C94D7000C94D8070C94820C0C94F30455
:1000F0000C944C1A0C9438010C9461080C94A81AB6
:100100000C9424170C94B8050C94DC160C94B307CB
:100110000C9465070C94A3190C94430C0C94342391
:100120000C94DB180C940F030C944B030C94B80242
:100130000C94EF240C94E1080C946A020C949C2318
:100140000C949B020C940A020C9405230C944E17F9
:100150000C9482010C945A190C9439170C94940D38
:100160000C94A6080C946E1A0C948A2411241FBEB9
:10017000CFEFD1E2DEBFCDBF00E00CBF13E0A0E0C7
:10018000B2E0E0E4F7E500E00BBF02C007900D929B
:10019000A837B107D9F725E0A8E7B3E001C01D9261
:1001A000A433B207E1F70E94E9240C949E2B0C942F
:1001B00000004195DC01FB0120E09C9180818927B2
:1001C000842398279D939081982791932F5F2031C6
:1001D000A1F70895CF93DF934195EC01DB0150E047
:1001E00038812C9123272423322739933C913227BD
:1001F0003D935F5F5031A1F7EC016096DB015096B3
:1002000050E038812C9123272423322739933C91C5
:1002100032273D935F5F5031A1F7EC01A096DB01DF
:10022000909650E038812C9123272423322739934C
:100230003C9132273D935F5F5031A1F7DC01D096AE
:10024000FB01F09620E09C918081892784239827E8
:100250009D939081982791932F5F2031A1F7DF9193
:10026000CF910895A0E0B0E0E8E3F1E00C941B2703
:10027000EC016B0159010E94AE0EB601605F7F4F29
:10028000A501CE0140960E94AE0EB601605E7F4F82
:10029000A801CE0180960E94AE0EB601605D7F4F30
:1002A000A701CE01C0960E94AE0ECDB7DEB7EAE040
:1002B0000C9437270F931F93CF93DF93EC018B019F
:1002C0000E943317B801605F7F4FCE0140960E94B5
:1002D0003317B801605E7F4FCE0180960E943317BE
:1002E000B801605D7F4FCE01C0960E943317DF9149
:1002F000CF911F910F910895A0E0B0E0E2E8F1E006
:100300000C941527EC016B012A01C6010E949B0F7A
:10031000BE01CE010E949B0FAE01B601C6010E9434
:100320001E17360180E1680E711CAE01405F5F4F01
:10033000B301C3010E941E17460180E2880E911C82
:10034000AE01405E5F4FB401C4010E941E1756010A
:1003500080E3A80EB11CAE01405D5F4FB501C50141
:100360000E941E17BE01CE010E945A018EE0E82EA7
:1003700082E0F82E00E112E022E132E044E152E0B6
:10038000B601C6010E94320122E132E044E152E0AE
:10039000BE01CE010E943201B601C6010E949B0F30
:1003A000BE01CE010E949B0FB601C6010E945A01F8
:1003B000BE01CE010E945A01A201405F5F4FB3010E
:1003C000C3010E941E17A201405E5F4FB401C40129
:1003D0000E941E17A201405D5F4FB501C5010E943A
:1003E0001E1796E1E92E92E0F92E08E112E02AE1CB
:1003F00032E04CE152E0BE01CE010E943201CDB7A5
:10040000DEB7E0E10C943127A0E0B0E0EAE0F2E0F2
:100410000C9417276C017B015A0149010E9418179F
:10042000C60140960E941817C60180960E941817B0
:10043000C601C0960E9418178BE0F601808386E102
:10044000808B83E180A383E080AB17FD3AC0612CF1
:10045000712C01C03E01F801F595E795F595E795FA
:10046000F595E795E80DF91DC081D0E0C8018770CA
:10047000992702C0D595C7958A95E2F7C170DD2707
:100480006C267D26B701C7010E944D13A301B70159
:10049000C6010E94EA00A501B701C6010E947C01C5
:1004A00001501109B8F6B601C6010E944D13AE0104
:1004B000B701C6010E94EA00CDB7DEB7EEE00C94AA
:1004C0003327C0E0D0E0EFCFA0E0B0E0EAE6F2E012
:1004D0000C941B27EC018B016B0180E2C80ED11C30
:1004E0005B0180E1A80EB11C7E0180E3E80EF11CE7
:1004F000A601B501C7010E941E17005D1F4FA8018C
:10050000B501CE0180960E941E17A801B601CE014A
:1005100040960E941E17A801B701CE010E941E1727
:10052000CDB7DEB7EAE00C943727A0E4B0E0EBE902
:10053000F2E00C941D277C016B018A016EE172E0F0
:10054000CE0101960E94640296014EE152E0BE0186
:100550006F5F7F4FC7010E940402C05CDF4FE8E07D
:100560000C943927A0E4B0E0E8EBF2E00C941927F2
:100570007C018B015B0180E2A80EB11C6B0180E164
:10058000C80ED11CA501B601CE01C1960E941E174E
:10059000480180E3880E911CA401BE016F5C7F4F6F
:1005A000CE0181960E941E17BE016F5D7F4FCE0166
:1005B00041960E94D518A801BE016F5E7F4FCB0106
:1005C0000E941E17A401BE016F5E7F4FCE010196EF
:1005D0000E941E17A501BE016F5F7F4FC7014096A5
:1005E0000E941E17A601BE016F5F7F4FC701809654
:1005F0000E941E17AE014F5E5F4FBE016F5C7F4FC2
:10060000C701C0960E941E17C05CDF4FECE00C943F
:100610003527A0E1B0E0EFE0F3E00C941B277C016C
:100620006B01BA01590142E752E00E94AE0E40E769
:1006300052E0B501CE0101960E94AE0EAE014F5FB1
:100640005F4FB701C7010E9468124EE652E0B80141
:10065000CE0101960E94AE0EAE014F5F5F4FB70113
:10066000C7010E94681244E752E0B601CE0101962C
:100670000E94AE0EAE014F5F5F4FB701C7010E94EF
:10068000DA126096EAE00C943727A0E1B0E0EBE4E0
:10069000F3E00C941B277C016B01BA0159010E9405
:1006A0006812A601B701C7010E94DA124CE052E0BD
:1006B000B701C7010E94AE0E48E052E0B501CE017D
:1006C00001960E94AE0EAE014F5F5F4FB701C701AA
:1006D0000E94681246E052E0B801CE0101960E94E5
:1006E000AE0EAE014F5F5F4FB701C7010E946812A7
:1006F0006096EAE00C943727AF92BF92CF92DF92D8
:10070000EF92FF920F93CF93DF93EC017B015A019D
:10071000690148E652E0B5010E94AE0EAE01B60195
:10072000CE010E941E17011133C046E652E0BE0101
:10073000CE010E94AE0EAE01BE01CE010E94681233
:1007400042E652E0B501C7010E94AE0EB701C701F3
:100750000E943317AE01B701CE010E94DA1246E6BD
:1007600052E0B601C7010E94AE0EB701C7010E9458
:100770003317AE01B701CE010E946812DF91CF910D
:100780000F91FF90EF90DF90CF90BF90AF900895C2
:100790004CE652E0B501C7010E94AE0EA701BE01B2
:1007A000CE010E9468124AE652E0B601C7010E94DB
:1007B000AE0EA701BE01CE010E94DA1246E652E05B
:1007C000BE01CE010E94AE0EAE01BE01CE010E945E
:1007D000681242E652E0B501C7010E94AE0EB701B1
:1007E000C7010E943317AE01B701CE010E94DA1291
:1007F00046E652E0B601C7010E94AE0EB701C7013E
:100800000E943317AE01B701CE010E9468128BE03F
:10081000F70180838CE28183329622E030E01192EE
:100820002F5F3F4F20313105D1F79FCF8F929F929D
:10083000AF92BF92CF92DF92EF920F931F93CF931D
:10084000DF936C01EB015A014901B9010E94331792
:10085000B801CE010E943317EE2009F47FC081E079
:10086000F50180831182329682E090E01192019628
:1008700080319105D9F7A501B601C6010E94681221
:10088000A501BE01CE010E946812AE01B601C501EC
:100890000E946812A801B601C6010E941E174CE60C
:1008A00052E0B601C6010E94AE0EA401BE01CE0107
:1008B0000E941E174AE652E0BE01CE010E94AE0E13
:1008C000AE01B601C6010E94DA1281E08883198266
:1008D000FE01329682E090E01192019680319105FE
:1008E000D9F7AE01B501C5010E94DA12AE01B5011A
:1008F000C5010E94DA1248E652E0B501C5010E9426
:10090000AE0EA501B601C6010E94681246E652E08D
:10091000B601C6010E94AE0EA801B401CE010E942C
:100920001E1740E652E0BE01CE010E94AE0E4EE51B
:1009300052E0BE01CE010E94AE0EAE01B601C6016C
:100940000E94DA12DF91CF911F910F91EF90DF900B
:10095000CF90BF90AF909F908F900895A801B6015F
:10096000C6010E941E174CE652E0B601C6010E9465
:10097000AE0EA401BE01CE010E941E174AE652E04F
:10098000BE01CE010E94AE0EAE01B601C6010E94AC
:10099000DA1246E652E0B601C6010E94AE0ED2CF90
:1009A000FB01DC0120E030E081918D932F5F3F4F10
:1009B00020323105C9F70895FC01DB018C91808359
:1009C00011968C918183329622E030E011922F5F54
:1009D0003F4F20313105D1F70895A0E4B0E0E3EFB7
:1009E000F4E00C9415272C016B017A015A0120E1E7
:1009F000A20EB11C4A0180E2880E911C3A01E0E38C
:100A00006E0E711C8A019501A401B301CE010196FD
:100A10000E94090385019701A301B401CE0141960B
:100A20000E94090384019301A701B501CE018196BB
:100A30000E94090383019401A501B701CE01C1966B
:100A40000E940903CE0181960E94D616F82E8111CC
:100A50007CC0CE0141960E94D616892B09F06EC04B
:100A6000CE0101960E94D616BE01892B09F074C0F2
:100A70006F5C7F4FC6010E94D518A601BE016F5C56
:100A80007F4FCB010E941E17A601BE016F5F7F4FF3
:100A9000C2010E941E17A601BE016F5E7F4FC601F4
:100AA0000E941E170F2D9601A201BE016F5F7F4F9E
:100AB000CE0181960E947C03AE014F5C5F4FBE0168
:100AC0006F5D7F4FCB010E941E17EF2C86019201B4
:100AD000AE014F5E5F4FBE016F5F7F4FCE01C1968B
:100AE0000E941604AE014F5C5F4FBE016F5D7F4FE9
:100AF000CB010E94DA12B201C2010E94B213B60108
:100B0000C6010E94B213BE016F5D7F4FCB010E94F0
:100B1000B213F794FF24F794F2018785F82AF78639
:100B200089A1F0E88F9FC0011124F6019785982BC9
:100B30009787C05CDF4FE0E10C943127BE016F5E08
:100B40007F4FC6010E94D51898CFBE016F5D7F4FC1
:100B5000C6010E94D51891CF6F5F7F4FC6010E94DA
:100B6000D5188BCFA5E0B0E0E8EBF5E00C941327A7
:100B70009D838C834B016A01BA010E9410176C801F
:100B80007D8020E1620E711CB601605F7F4FC30162
:100B90000E941017EC81FD819785F92EFF1CFF2420
:100BA000FF1C878DF82FFF1FFF27FF1FFB839F77F9
:100BB000EC81FD8197878F77878F5F01F0E2AF0E21
:100BC000B11C140120E1220E311C0F2D93014C8128
:100BD0005D81B501C1010E947C038C819D81C0961D
:100BE0009A838983240190E2490E511CEF2C8301E2
:100BF0002C813D8149815A81B501C2010E941604B0
:100C00006401E0E3CE0ED11CF11074C044E652E062
:100C10006C817D81C6010E94AE0EA301B601C601A2
:100C20000E941E17B601C6010E943317C1010E941F
:100C3000D616B201892B69F5C2010E94B213C20116
:100C40000E94D616892B09F412C1F40180A1FB8100
:100C50008F1709F448C04C815D81B201C4010E9424
:100C60001E17A401B401C4010E946812A301B201BD
:100C7000C1010E941E17A101B101C1010E946812A9
:100C8000FF2009F414C1A201B201C2010E9468123E
:100C9000C9C0C5010E943317A601B10189819A819B
:100CA0000E941E1749815A81B501C5010E94DA12BE
:100CB000B50189819A810E944817A50169817A81CD
:100CC000CB010E941E1769817A81C4010E943317EB
:100CD000A501B401C4010E94DA12C4010E94D61613
:100CE000892B09F476C081E090E02596E2E10C942E
:100CF0002F27E5C04CE652E0B301C5010E94AE0EBD
:100D00004AE652E06C817D81C6010E94AE0EA601CA
:100D1000B501C5010E94DA1281E1F40180AB82E1E4
:100D200081ABF29682E090E01192019680319105BC
:100D3000D9F7A601B501C5010E9468124C815D81F9
:100D4000B501C5010E941E17A301B501C5010E948E
:100D50001E1746E652E0B501C5010E94AE0EA50180
:100D6000B501C5010E94681246E652E06C817D81A2
:100D7000C6010E94AE0EB601C6010E943317A5013E
:100D8000B601C5010E94DA1242E652E0B301C60183
:100D90000E94AE0EB601C6010E943317A501B6012E
:100DA000C5010E94681244E652E06C817D81C60153
:100DB0000E94AE0EA301B601C6010E941E17B60125
:100DC000C6010E943317A501B601C6010E94681230
:100DD0002DCF69817A81CB010E94B213EC81FD8114
:100DE00080A98170FB81F81729F069817A81CB0194
:100DF0000E944D1349815A81B201C6010E946812B6
:100E0000FF2009F458C0B101C2010E9410174C81A3
:100E10005D81B101C4010E941E17A301B101C1018E
:100E20000E941E1784019101A201B6018C819D814F
:100E30000E94450381019401A601B201C3010E94F1
:100E4000450382019601A401B101C5010E94450339
:100E500086019201A101B40189819A810E94450312
:100E600080E090E02596E2E10C942F2728C08C8149
:100E70009D810E94D6168C01C3010E94D616802B3C
:100E8000912BFB81FF2A8F29892B09F02CCFC401DC
:100E90000E941817C1010E941817C2010E9418175A
:100EA000C6010E94181781E0F40180ABBBCFC201DC
:100EB0000E941817B7CFC2010E941817A8CFA0E14F
:100EC000B0E0E5E6F7E00C9413273C012A01190194
:100ED000A7010E941E17A601B201CE0101960E9431
:100EE0001E17AE014F5F5F4FB301C3010E9468122E
:100EF000A501B101CE0101960E941E17AE014F5F00
:100F00005F4FB301C3010E946812A401B801CE0172
:100F100001960E941E17AE014F5F5F4FB301C301E0
:100F20000E9468126096E2E10C942F270F931F93A2
:100F3000CF93DF938C01EB01CE010E944D13BE01D4
:100F4000C8010E949B0FC801C096BC010E944D13AE
:100F5000DF91CF911F910F910895A0E0B0E0E3EBF6
:100F6000F7E00C941B27EC016B015901BA01C60193
:100F70000E94DC04A501B601C6010E94AE0EB801B4
:100F8000CE010E94DC04A701BE01CE010E94AE0E7C
:100F9000A601BE01CE010E946812CDB7DEB7EAE01D
:100FA0000C943727A2E0B0E0E8EDF7E00C941327AB
:100FB0003C012B01BA019A8289828A8C9B8C2C8CF1
:100FC0003D8CA9010E941E17A501B601C2010E9415
:100FD0001E17620180E1C80ED11CA701B801C6012D
:100FE0000E941E17A601B301C3010E94DA1252012A
:100FF00090E2A90EB11C488D598D69817A81C50195
:101000000E941E17A501B201C2010E94DA12A201BC
:10101000B301C3010E941E17A501B601C2010E94BF
:101020001E174E8D5F8DB301C3010E94AE0E48A105
:1010300059A1B301C3010E94AE0E7101840128A120
:1010400039A14E8D5F8DB501C6010E94AD07A60185
:10105000B201C2010E941E17A301B201C3010E9486
:10106000DA12A401B301C3010E94AE0EA101B301C3
:10107000C3010E94AE0EEE8CFF8C28A139A1A10104
:10108000B501C6010E94AD07A601B301C3010E94CC
:101090001E17E8A0F9A02E8D3F8DA101B501C60154
:1010A0000E94AD07A601B301C3010E941E1722963C
:1010B000E2E10C942F27A0E0B0E0E1E6F8E00C9428
:1010C00019275C016B01EA014901B801C6010E94C0
:1010D0003317A601BE01C6010E941E17E6016096E5
:1010E000A701B801CE010E941E17AE01B501CE01C5
:1010F0000E941E17AE0166E772E0CE010E941E1725
:10110000AE01BE01CE010E946812AE01B601C60159
:101110000E94DA12B701CE010E943317AE01B4016A
:10112000CE010E941E17AE01B601C6010E946812D0
:10113000C6010E94D616CDB7DEB7ECE00C94352779
:10114000A0E1B0E0E6EAF8E00C941B277C016A011C
:10115000590144E952E00E94AE0E42E952E0B60164
:10116000CE0101960E94AE0EAE014F5F5F4FB701F8
:10117000C7010E94DA1240E952E0B501CE010196A2
:101180000E94AE0EAE014F5F5F4FB701C7010E94D4
:10119000DA124EE852E0B801CE0101960E94AE0E7E
:1011A000AE014F5F5F4FB701C7010E9468126096A2
:1011B000EAE00C943727A6E6B0E0E1EEF8E00C9404
:1011C000132767969FAF8EAF679769967FAF6EAF15
:1011D00069971A012901A1961FAF0EAFA197BC0113
:1011E0000E94960769966EAD7FAD6997CB010E940C
:1011F000960767966EAD7FAD6797C2010E945A0150
:1012000069966EAD7FAD6997CE0101960E945A0135
:101210008EE0E82E82E0F82E00E112E022E132E0DA
:1012200044E152E0B201C2010E94320122E132E007
:1012300044E152E0BE016F5F7F4FCB010E9432015B
:10124000B201C2010E944D13BE016F5F7F4FCB01FF
:101250000E944D139201205D3F4F63963FAF2EAF2A
:101260006397C201809665969FAF8EAF65973201F6
:1012700090E1690E711CDE01D1964D019E012F5D3A
:101280003F4F5901CE0141966C01D0977D01639685
:101290000EAD1FAD639765962EAD3FAD6597A3016B
:1012A000B201C1010E945F079101205F3F4F6B9621
:1012B0003FAF2EAF6B97C5014501DE01D1965D01B1
:1012C000670140977C0163960EAD1FAD63976596ED
:1012D0002EAD3FAD6597A301B2016B968EAD9FAD6C
:1012E0006B970E945F07D10190966D96BFAFAEAF2E
:1012F0006D9797014701205F3F4F790163960EADCF
:101300001FAD6397930165964EAD5FAD6597B201D2
:101310006D968EAD9FAD6D970E945F07C101C0961F
:101320006F969FAF8EAF6F97D401570190967D0156
:1013300065960EAD1FAD6597930163964EAD5FAD9B
:101340006397B2016F968EAD9FAD6F970E945F0756
:101350006F960EAD1FAD6F976D962EAD3FAD6D972D
:101360006B964EAD5FAD6B97B101C6010E94A008B0
:101370006D960EAD1FAD6D976F962EAD3FAD6F970D
:10138000A1016B966EAD7FAD6B97C4010E94A00862
:101390006B960EAD1FAD6B9791016F964EAD5FAD25
:1013A0006F976D966EAD7FAD6D97C5010E94A008D9
:1013B00081016B962EAD3FAD6B976D964EAD5FADD7
:1013C0006D976F966EAD7FAD6F97C7010E94A008B5
:1013D00096E8E92E92E0F92E08E812E02AE832E0D9
:1013E0004CE852E0B601C6010E943201B601C601C6
:1013F0000E944D13A1964EAD5FADA197B201C10100
:101400000E94B205892B41F081E090E0CA59DF4F7C
:10141000E2E10C942F2731C2B101C1010E9496076D
:1014200069962EAD3FAD6997205D3F4F63963FAF04
:101430002EAF639769968EAD9FAD6997809665963E
:101440009FAF8EAF65976996AEADBFAD6997509669
:10145000A196BFAFAEAFA19767962EAD3FAD679790
:10146000205D3F4FA3963FAF2EAFA39767968EADFB
:101470009FAD67978096A5969FAF8EAFA59767960D
:10148000AEADBFAD67975096A796BFAFAEAFA7976B
:10149000D701BF93EF92D801BF930F93AAE8B2E0B0
:1014A000BF93AF93ACE8B2E0BF93AF9363963FAD09
:1014B00063973F9362968FAD62978F9365968EACDC
:1014C0009FAC6597A196AEACBFACA1976996CEAC28
:1014D000DFAC6997A396EEACFFACA397A5960EADD3
:1014E0001FADA597A7962EAD3FADA79767964EADBA
:1014F0005FAD6797B201CE018F5B9F4F0E94D2070D
:101500006B96EEACFFAC6B9781019E012F5F3F4F56
:10151000AE014F5E5F4FB201CE018F5B9F4F0E94C5
:101520005B083C01A6E8B2E0BF93AF93AAE8B2E043
:10153000BF93AF93A8E8B2E0BF93AF93ACE8B2E03B
:10154000BF93AF9363963FAD63973F9362968FAD22
:1015500062978F93A1968EAC9FACA1976596AEAC27
:10156000BFAC65976996CEACDFAC6997A396EEAC3D
:10157000FFACA397A7960EAD1FADA797A5962EAD6E
:101580003FADA59767964EAD5FAD6797B201CE01AF
:101590008F5B9F4F0E94D2076D96EEACFFAC6D97AC
:1015A00081019E012F5F3F4FAE014F5D5F4FB20142
:1015B000CE018F5B9F4F0E945B08682A792AA8E8BA
:1015C000B2E0BF93AF93AAE8B2E0BF93AF93A6E8AF
:1015D000B2E0BF93AF93ACE8B2E0BF93AF93659630
:1015E0003FAD65973F9364968FAD64978F93A196B7
:1015F0008EAC9FACA1976396AEACBFAC6397699677
:10160000CEACDFAC6997A596EEACFFACA597A796DC
:101610000EAD1FADA797A3962EAD3FADA3976796CE
:101620004EAD5FAD6797B201CE018F5B9F4F0E94B9
:10163000D2076F96EEACFFAC6F9781019E012F5FD2
:101640003F4FAE014F5C5F4FB201CE018F5B9F4FAA
:101650000E945B08682A792AA6E8B2E0BF93AF939C
:10166000ACE8B2E0BF93AF93A8E8B2E0BF93AF930A
:10167000AAE8B2E0BF93AF9363963FAD63973F9301
:1016800062968FAD62978F9369968EAC9FAC699787
:101690006596AEACBFAC6597A196CEACDFACA1971A
:1016A000A396EEACFFACA39767960EAD1FAD679700
:1016B000A5962EAD3FADA597A7964EAD5FADA7976A
:1016C000B201CE018F5B9F4F0E94D2070FB6F894F4
:1016D000DEBF0FBECDBFBE016F5B7F4FCB010E944F
:1016E0004D136D96EEACFFAC6D976B960EAD1FADC6
:1016F0006B979E012F5E3F4FAE014F5D5F4FB20172
:10170000CE018F5B9F4F0E945B08682A792AA8E868
:10171000B2E0BF93AF93ACE8B2E0BF93AF93A6E85B
:10172000B2E0BF93AF93AAE8B2E0BF93AF936596E0
:101730003FAD65973F9364968FAD64978F9369969D
:101740008EAC9FAC69976396AEACBFAC6397A19625
:10175000CEACDFACA197A596EEACFFACA597679693
:101760000EAD1FAD6797A3962EAD3FADA397A7967D
:101770004EAD5FADA797B201CE018F5B9F4F0E9428
:10178000D207BE016F5B7F4FCB010E944D136F9656
:10179000EEACFFAC6F976B960EAD1FAD6B979E01D5
:1017A0002F5E3F4FAE014F5C5F4FB201CE018F5BAA
:1017B0009F4F0E945B08682A792AAAE8B2E0BF938B
:1017C000AF93ACE8B2E0BF93AF93A6E8B2E0BF93AB
:1017D000AF93A8E8B2E0BF93AF93A1963FADA197B6
:1017E0003F93A0968FADA0978F9369968EAC9FACD8
:1017F00069976396AEACBFAC63976596CEACDFAC31
:101800006597A796EEACFFACA79767960EAD1FAD98
:101810006797A3962EAD3FADA397A5964EAD5FAD4E
:10182000A597B201CE018F5B9F4F0E94D207BE01E8
:101830006F5B7F4FCB010E944D136F96EEACFFACF8
:101840006F976D960EAD1FAD6D979E012F5D3F4F4B
:10185000AE014F5C5F4FB201CE018F5B9F4F0E9484
:101860005B080FB6F894DEBF0FBECDBF862997295F
:10187000CA59DF4FE2E10C942F27A0E4B0E0E3E483
:10188000FCE00C941B276C015B0180E2E82EF12C3C
:1018900000E010E020E030E040E050E0C5010E94B0
:1018A000EE13B501605E7F4FC6010E94461A4AEFF3
:1018B00050E0B601CE0101960E949502AE014F5F45
:1018C0005F4FBE016F5C7F4FCE0181960E94ED0499
:1018D000BE016F5D7F4FC6010E940817BE016F5C9D
:1018E0007F4FC60140960E94081780E090E0C05CE0
:1018F000DF4FEAE00C943727AEE6B0E0E2E8FCE028
:101900000C9413273C01FB01B42F552EA296CFAEA9
:10191000A297A396DFAEA397A496EFAEA497A59641
:10192000FFAEA597A6960FAFA697A7961FAFA7974E
:10193000A8962FAFA897A9963FAFA9979601A701A0
:10194000B801A8968FADA897A9969FADA997A0E4D6
:101950000E946327AA962FAFAA97AB963FAFAB978B
:101960001A01AC966FAFAC97AD967FAFAD97AE96C0
:101970008FAFAE97AF969FAFAF9720833183228210
:10198000338264837583AE968FADAE9786839783DB
:101990009601A701B801A8968FADA897A9969FAD0B
:1019A000A997A0E00E94782781F0EB2FF52DD301B5
:1019B000A05CBF4FA3968EAD9FADA3978E0F9F1FC8
:1019C00021912D93E817F907D9F7D401230180E27B
:1019D000480E511CF20180E090E02D912193019678
:1019E00080329105D1F7A2962FADA297A3963FAD75
:1019F000A397A4964FADA497A5965FADA597A6967D
:101A00006FADA697A7967FADA797A8968FADA8971D
:101A1000A9969FADA997A0E20E94632779018A0148
:101A20009B01AC01B201C3010E94EE13B301CE01D0
:101A30008F5B9F4F0E94681A4AEF50E0BE016F5BB8
:101A40007F4FCE0101960E949502AE014F5F5F4F1E
:101A5000BE016F5C7F4FCE0181960E94ED04BE01F6
:101A60006F5D7F4FC3010E940817630180E1C80EBC
:101A7000D11CBE016F5C7F4FC6010E940817F501A3
:101A8000D20180E090E021912D9301968032910562
:101A9000D1F7AA96EFACAA97AB96FFACAB978101B2
:101AA000AC962FADAC97AD963FADAD97AE964FAD22
:101AB000AE97AF965FADAF97B301C3010E94EE132F
:101AC000B301CE0101960E94681ABE016F5D7F4F7F
:101AD000C3010E940817BE016F5C7F4FC6010E94C0
:101AE0000817BE016F5F7F4FCB010E94831AB401BC
:101AF000605E7F4FC2010E94461A9201AE014F5FA5
:101B00005F4FBE016F5B7F4FC2010E94A21A80E04F
:101B100090E0C259DF4FE2E10C942F27A8E2B1E038
:101B2000E4E9FDE00C9413278C016701C25CDE4FF1
:101B30004880CE53D140C15CDE4F5880CF53D14056
:101B4000C05CDE4F6880C054D140CF5BDE4F7880F0
:101B5000C154D140CE5BDE4F8880C254D140CD5BB2
:101B6000DE4F9880C354D140CC5BDE4FA880C45474
:101B7000D140CB5BDE4FB880C554D140CA5BDE4F4D
:101B8000F880C654D140C95BDE4F2880C754D1408D
:101B90006F2D722DCE018F5F9E4F0E94D004AE013B
:101BA0004F5F5E4FBE016F577F4FCE018F539F4FE8
:101BB0000E94B205892B41F081E090E0C85DDE4FC4
:101BC000E2E10C942F27CAC0B601CE018F5F9E4F71
:101BD0000E94D004C6018096CF5DDE4F9983888332
:101BE000C152D140BC01CE018F5B9F4F0E94461A6B
:101BF0009201A301B401C501A0EC0E946327322E1B
:101C0000CD5DDE4F3883C352D140CC5DDE4F48837B
:101C1000C452D140E52ECB5DDE4F6883C552D14022
:101C2000CA5DDE4F7883C652D140C95DDE4F8883DE
:101C3000C752D140C85DDE4F9883C852D140A0E062
:101C40000E94782779F0F601E05CFF4FD80190E41C
:101C5000491A510880E090E021912D930196841556
:101C60009505D1F7AF2DB22DCF5DDE4FE881F9811B
:101C7000C152D14080E090E02D91219301968032B5
:101C80009105D1F7232DCD5DDE4F3881C352D14070
:101C9000CC5DDE4F4881C452D1405E2DCB5DDE4F1E
:101CA0006881C552D140CA5DDE4F7881C652D140AD
:101CB000C95DDE4F8881C752D140C85DDE4F988133
:101CC000C852D140A0E40E94632779018A019B0198
:101CD000AC01B601C6010E94EE1391E4E92EF12C8D
:101CE000EC0EFD1E80E2E80EF11CB601C7010E9459
:101CF000681ABE016F537F4FCE0101960E94B20257
:101D00000AEF10E09701AE014F5F5F4FBE016F53C6
:101D10007F4FCE018F579F4F0E9404024AEF50E041
:101D2000BE016F5B7F4FCE018F539F4F0E94950284
:101D30008E010F5F1E4F9E012F5F3F4FAE014F5B25
:101D40005F4FBE016F577F4FCE018F539F4F0E9451
:101D5000DB08C85DDE4FE2E10C942F272F923F9203
:101D60006F927F928F929F92AF92BF92CF92DF92AB
:101D7000EF92FF920F931F93CF93DF93FC01EA0141
:101D8000DB017727882799276624772488249924DC
:101D9000AA24BB24CC24DD24EE24FF240027112711
:101DA00022273327588169814D91459F10014D911C
:101DB000459F300C811D4D91459F800D911D4D918A
:101DC000459F900D611C4D91459F600C711C4D917C
:101DD000459F700C811C4D91459F800C911C4D912D
:101DE000459F900CA11C4D91459FA00CB11C4D919D
:101DF000459FB00CC11C4D91459FC00CD11C4D910D
:101E0000459FD00CE11C4D91459FE00CF11C4D917C
:101E1000459FF00C011D4D91459F000D111D4C91EA
:101E2000459F100D211D12974D91469F000D131EC9
:101E3000512D4D91469F100D211D331F4C91469FF2
:101E4000150F201D311D1F97110F221F331F1695CF
:101E50004D91469F220E301C212D271F4D91469FEC
:101E6000330E801D312D371F4D91469F820F901DDF
:101E7000212D271F4D91469F930F601C312D371F39
:101E80004D91469F620E701C212D271F4D91469F3C
:101E9000730E801C312D371F4D91469F820E901C72
:101EA000212D271F4D91469F930EA01C312D371FCA
:101EB0004D91469FA20EB01C212D271F4D91469F8C
:101EC000B30EC01C312D371F4D91469FC20ED01C42
:101ED000212D271F4D91469FD30EE01C312D371F1A
:101EE0004C91469FE20EF01C071F171FF30E011DB9
:101EF000171F208231828283938364827582868257
:101F00009782A086B186C286D386E486F586068748
:101F100017871124DF91CF911F910F91FF90EF90C0
:101F2000DF90CF90BF90AF909F908F907F906F90F9
:101F30003F902F9008956F927F928F929F92AF92D1
:101F4000BF92CF92DF92EF92FF920F931F933E01C9
:101F5000FB01EC01A080B088AB0CB180C188BC1C37
:101F6000C280D288CD1CD380E388DE1CE480F48854
:101F7000EF1CF5800589F01E06811689011F178167
:101F80002789121F2085308D231F3185418D341FF5
:101F90004285528D451F5385638D561F6485748D10
:101FA000671F7585858D781F8685968D891F978516
:101FB000978C991D8824881C990F881C9695A80CCD
:101FC000B11CC11CD11CE11CF11C011D111D211DE6
:101FD000311D411D511D611D711D811D911D908877
:101FE000A88AA0809A18A188B98AB180AB08B28863
:101FF000CA8AC280BC08C388DB8AD380CD08D48853
:10200000EC8AE480DE08E588FD8AF580EF08F68832
:102010000E8B0681F00A07891F8B1781010B108D2B
:10202000288F2085120B218D398F3185230B328D1E
:102030004A8F4285340B438D5B8F5385450B548DFE
:102040006C8F6485560B658D7D8F7585670B768DDE
:102050008E8F8685780B878D9F8F9785890B882437
:10206000881C880C9818A108B108C108D108E1089B
:10207000F1080109110921093109410951096109D1
:10208000710981098824881C880C98189882A98273
:10209000BA82CB82DC82ED82FE820F831887298789
:1020A0003A874B875C876D877E878F87A0A0B0A813
:1020B000AB0CB1A0C1A8BC1CC2A0D2A8CD1CD3A09F
:1020C000E3A8DE1CE4A0F4A8EF1CF5A005A9F01E0F
:1020D00006A116A9011F17A127A9121F20A530AD1F
:1020E000231F31A541AD341F42A552AD451F53A555
:1020F00063AD561F64A574AD671F75A585AD781FC8
:1021000086A596AD891F97A597AC991D8824881C34
:10211000990F881C9695A80CB11CC11CD11CE11C00
:10212000F11C011D111D211D311D411D511D611D80
:10213000711D811D911D9F938F937F936F935F936B
:102140004F933F932F931F930F93FF92EF92DF9242
:10215000CF92BF92AF9290A0A0A89A18A1A0B1A8C8
:10216000AB08B2A0C2A8BC08C3A0D3A8CD08D4A015
:10217000E4A8DE08E5A0F5A8EF08F6A006A9F00A95
:1021800007A117A9010B10A520AD120B21A531AD98
:10219000230B32A542AD340B43A553AD450B54A5DB
:1021A00064AD560B65A575AD670B76A586AD780B4E
:1021B00087A597AD890B8824881C880C9818A108DE
:1021C000B108C108D108E108F10801091109210984
:1021D0003109410951096109710981098824881C63
:1021E000880C981898AAA9AABAAACBAADCAAEDAA20
:1021F000FEAA0FAB18AF29AF3AAF4BAF5CAF6DAFD4
:102200007EAF8FAF8888980C8988A81C8A88B81CF4
:102210008B88C81C8C88D81C8D88E81C8E88F81C7C
:102220008F88081D888C181D898C281D8A8C381D64
:102230008B8C481D8C8C581D8D8C681D8E8C781D48
:102240008F8C881D8824881C880F881C8695980C84
:10225000A11CB11CC11CD11CE11CF11C011D111DD4
:10226000211D311D411D511D611D711D811D88A83C
:1022700098AA9888891899A8A9AAA9889A08AAA8A2
:10228000BAAABA88AB08BBA8CBAACB88BC08CCA892
:10229000DCAADC88CD08DDA8EDAAED88DE08EEA872
:1022A000FEAAFE88EF08FFA80FAB0F89F00A08AD61
:1022B00018AF188D010B19AD29AF298D120B2AAD5E
:1022C0003AAF3A8D230B3BAD4BAF4B8D340B4CAD3E
:1022D0005CAF5C8D450B5DAD6DAF6D8D560B6EAD1E
:1022E0007EAF7E8D670B7FAD8FAF8F8D780B88278C
:1022F000881F880F881A9108A108B108C108D10861
:10230000E108F108010911092109310941095109BF
:10231000610971098827881F880F881A88A299A2E5
:10232000AAA2BBA2CCA2DDA2EEA2FFA208A719A777
:102330002AA73BA74CA75DA76EA77FA7A880BF9041
:10234000B88AAB0CB980CF90C98ABC1CCA80DF9018
:10235000DA8ACD1CDB80EF90EB8ADE1CEC80FF90EC
:10236000FC8AEF1CFD800F910D8BF01E0E811F91DA
:102370001E8B011F1F812F912F8B121F28853F91CC
:10238000388F231F39854F91498F341F4A855F91BC
:102390005A8F451F5B856F916B8F561F6C857F91A0
:1023A0007C8F671F7D858F918D8F781F8E859F9184
:1023B0009E8F891F9F859F909F8E991D8824881CC2
:1023C000990F881C9695A80CB11CC11CD11CE11C4E
:1023D000F11C011D111D211D311D411D511D611DCE
:1023E000711D811D911D9880A882A8889A18A980C6
:1023F000B982B988AB08BA80CA82CA88BC08CB80C7
:10240000DB82DB88CD08DC80EC82EC88DE08ED80A6
:10241000FD82FD88EF08FE800E830E89F00A0F8191
:102420001F831F89010B18852887288D120B29858A
:102430003987398D230B3A854A874A8D340B4B8572
:102440005B875B8D450B5C856C876C8D560B6D8552
:102450007D877D8D670B7E858E878E8D780B8F8532
:102460009F879F8D890B8824881C880C9818A10849
:10247000B108C108D108E108F108010911092109D1
:102480003109410951096109710981098824881CB0
:10249000880C9818988AA98ABA8ACB8ADC8AED8A2D
:1024A000FE8A0F8B188F298F3A8F4B8F5C8F6D8F21
:1024B0007E8F8F8FE3011F910F91FF90EF90DF9040
:1024C000CF90BF90AF909F908F907F906F90089526
:1024D0007F928F929F92AF92BF92CF92DF92EF92B4
:1024E000FF920F931F93DB01FC01CE01EA017D9067
:1024F0008990780C8D909990891C9D90A9909A1C38
:10250000AD90B990AB1CBD90C990BC1CCD90D9903A
:10251000CD1CDD90E990DE1CED90F990EF1CFD9054
:102520000991F01E0D911991011F1D912991121F02
:102530002D913991231F3D914991341F4D9159910E
:10254000451F5D916991561F6D917991671F77279E
:10255000771F660F771F6695770E811C911CA11C53
:10256000B11CC11CD11CE11CF11C011D111D211D40
:10257000311D411D511D611D719281929192A19257
:10258000B192C192D192E192F19201931193219370
:102590003193419351936083EC0111241F910F916A
:1025A000FF90EF90DF90CF90BF90AF909F908F9073
:1025B0007F9008957F928F929F92AF92BF92CF9219
:1025C000DF92EF92FF920F931F93DB01FC01CE018C
:1025D000EA017D90899078188D90999089089D9056
:1025E000A9909A08AD90B990AB08BD90C990BC086D
:1025F000CD90D990CD08DD90E990DE08ED90F9906E
:10260000EF08FD900991F00A0D911991010B1D91B0
:102610002991120B2D913991230B3D914991340B46
:102620004D915991450B5D916991560B6D91799141
:10263000670B7727771F770F771A81089108A10812
:10264000B108C108D108E108F108010911092109FF
:1026500031094109510961097727771F770F771AE7
:10266000719281929192A192B192C192D192E19292
:10267000F19201931193219331934193519360838C
:10268000EC011F910F91FF90EF90DF90CF90BF90E2
:10269000AF909F908F907F9008959F92AF92BF923E
:1026A000CF92DF92EF92FF920F931F93DB01FC0119
:1026B000AA24BB246501750185019501A501B50119
:1026C000C5019D90A9189D90B9089D90C9089D903D
:1026D000D9089D90E9089D90F9089D9009099D9061
:1026E00019099D9029099D9039099D9049099D904E
:1026F00059099D9069099D9079099D9089099D903E
:102700009909111C110CA1181124B108C108D10894
:10271000E108F108010911092109310941095109AB
:102720006109710981099109111C110CA118112469
:10273000A192B192C192D192E192F192019311933F
:10274000219331934193519361937193819390833A
:102750001F910F91FF90EF90DF90CF90BF90AF90BF
:102760009F900895DB01FC0133271F962C911F9742
:10277000220F331F26955D91530F4D91411D4183CB
:102780004D91411D42834D91411D43834D91411D0A
:1027900044834D91411D45834D91411D46834D918B
:1027A000411D47834D91411D40874D91411D4187FA
:1027B0004D91411D42874D91411D43874D91411DD2
:1027C00044874D91411D45874D91411D4687211DEF
:1027D000220F511D26952787508308952F923F92EF
:1027E0004F925F926F927F928F929F92AF92BF9221
:1027F000CF92DF92EF92FF920F931F93CF93DF93CD
:10280000EDB7FEB7E05FF0400FB6F894FEBFEDBF46
:102810000FBEB9968F939F93CF01EB01870142E3DF
:1028200011921192119211924A95D1F7083A11051D
:1028300098F145E1FC0129913081232721932991C9
:1028400030812327219329913081232721932991B6
:1028500030812327219329913081232721932991A6
:102860003081232721932991308123272193299196
:102870003081232721934150F1F6CF93DF930F93BB
:102880001F930E941C151F910F91DF91CF91085A41
:102890001040083A110568F6FC01069528F42991C4
:1028A000308123272193005051F029913081232733
:1028B000219329913081232721930150B1F72FE1F2
:1028C000308123272083E7EAE80FF92FF11D2081CB
:1028D000205820830E941C1540E1EC01FF91EF91EC
:1028E0002991219329912193299121932991219330
:1028F0004A95B1F7E7EC8E0F911D0FB6F8949EBF85
:102900008DBF0FBEDF91CF911F910F91FF90EF9080
:10291000DF90CF90BF90AF909F908F907F906F90FF
:102920005F904F903F902F90812D912D0895010041
:1029300050030938060958021288071B90051B1816
:10294000042428043680053F400700A80212C00670
:102950001B20032D78013FB8000998001B68012D4A
:10296000600300100612A0022D700700B005124887
:10297000042D3004000801000000000000008280E7
:102980000000000000008A8000000000008000803D
:102990000080000000808B8000000000000001002B
:1029A000008000000000818000800000008009801D
:1029B0000000000000808A00000000000000880085
:1029C00000000000000009800080000000000A00F4
:1029D0000080000000008B800080000000008B0061
:1029E000000000000080898000000000008003805B
:1029F00000000000008002800000000000808000D5
:102A00000000000000800A800000000000000A00B2
:102A100000800000008081800080000000808080B5
:102A2000000000000080010000800000000008801D
:102A3000008000000080FF00FC01B89725E0EC0159
:102A400029903990499059906990799089909990FE
:102A5000A0960990202409903024099040240990E0
:102A600050240990602409907024099080240990D2
:102A70009024A096099020240990302409904024A5
:102A800009905024099060240990702409908024B2
:102A900009909024A0960990202409903024099050
:102AA00040240990502409906024099070240990D2
:102AB000802409909024A096099020240990302425
:102AC00009904024099050240990602409907024B2
:102AD0000990802409909024219231924192519240
:102AE0006192719281929192C05AD109215009F05C
:102AF000A7CF66E779E2FC013897DC019097EC01FB
:102B000026E12D903D904D905D906D907D908D9043
:102B10009D90220C331C441C551C661C771C881C81
:102B2000991C211C01902024019030240190402404
:102B30000190502401906024019070240190802421
:102B40000190902435E00880022409920880032433
:102B500009920880042409920880052409920880BB
:102B60000624099208800724099208800824099203
:102B7000088009240992A0963A9529F7C05CD109EA
:102B8000269510F439F0BDCF2B3011F4B897B9CF9A
:102B90009897B7CFA097299039904990599069900C
:102BA0007990899099906F937F932EE239E2A2E415
:102BB000B6E16EE876E1F9010590A59045919F0197
:102BC000FD01E00DF11D0994EC01C40FD11DFB01C5
:102BD000EA0DF11D09942897299239924992599248
:102BE00069927992899299921501260137014801DB
:102BF000485009F77F916F91EC01DC019897FB0138
:102C000008E0A12CB12C6501E12C15E02880388466
:102C10004888588C68A0032C009404200224A02427
:102C20000882042C009405200324B0240886052C77
:102C3000009406200424C024088A062C0094022054
:102C40000524D024088E209423202624E22428A2C0
:102C5000A8961A95D9F6C85CD10905902880202439
:102C60002992BF01FD01A024A192B782C786D78A0D
:102C7000E78EDF01FB010A9521F60490039409F029
:102C80003ACF0895A1CF21C017C00DC003C027C0FF
:102C900030C039C0220C331C441C551C661C771CE8
:102CA000881C991C211C220C331C441C551C661CBE
:102CB000771C881C991C211C220C331C441C551C9D
:102CC000661C771C881C991C211C220C331C441C7C
:102CD000551C661C771C881C991C211C75CF20FA7A
:102CE000979487947794679457944794379427944C
:102CF00097F820FA97948794779467945794479419
:102D00003794279497F820FA979487947794679448
:102D1000579447943794279497F856CFA990B99031
:102D2000C990D990E990F9900991199154CFB9902F
:102D3000C990D990E990F99009911991A9904BCF38
:102D4000C990D990E990F99009911991A990B990F9
:102D500042CFD990E990F99009911991A990B99031
:102D6000C99039CFE990F99009911991A990B9903A
:102D7000C990D99030CFF99009911991A990B99043
:102D8000C990D990E99027CF09911991A990B9904C
:102D9000C990D990E990F9901ECF1991A990B99056
:102DA000C990D990E990F990099115CFA0E1B0E0D0
:102DB000ECEDF6E10C94212721E029838E010F5ED2
:102DC0001F4FFE0132961192E017F107E1F7AC01B7
:102DD000BE016F5F7F4FCB010E946812BE016F5F23
:102DE0007F4FCB010E94B213298181E02827FE0189
:102DF00032968191282BE017F107D9F781E090E016
:102E0000211102C080E090E06096E4E00C943D2740
:102E1000FB01DC0180E191919D938150E1F70895E0
:102E2000FB01DC0180E191919D938150E1F70895D0
:102E3000FC0180E111928150E9F70895A0E2B0E031
:102E4000E4E2F7E10C9421278C01CE0101960E9467
:102E5000F31ABE016F5F7F4FC8010E941622A09631
:102E6000E4E00C943D27A0E2B0E0E9E3F7E10C9444
:102E700021278C01CE0101960E944A1FBE016F5F7F
:102E80007F4FC8010E941622A096E4E00C943D27D3
:102E9000A0E5B0E0EEE4F7E10C941F278C017B0184
:102EA000CE0101960E944A1FBE016F5F7F4FCE0187
:102EB0008F5B9F4F0E941622A701BE016F5B7F4F61
:102EC000CE0101960E94F31ABE016F5F7F4FCE01C3
:102ED000C1960E941622BE016F5C7F4FCE01019603
:102EE0000E944A1FBE016F5F7F4FCE0181960E94F4
:102EF0001622BE016F5D7F4FCE0101960E944A1FD0
:102F0000BE016F5F7F4FCE0181960E941622AE01F7
:102F10004F5C5F4FBE016F5D7F4FCE0101960E94F7
:102F2000F31ABE016F5F7F4FCE01C1960E94162239
:102F3000BE016F5C7F4FCE0101960E944A1FBE0109
:102F40006F5F7F4FCE0181960E941622A701BE01BE
:102F50006F5D7F4FCE0101960E94F31ABE016F5F35
:102F60007F4FCE0181960E941622BE016F5D7F4F7A
:102F7000CE0101960E944A1FBE016F5F7F4FC801BC
:102F80000E94162254E0F52EB801CE0101960E944F
:102F90004A1FBE016F5F7F4FC8010E941622FA943C
:102FA00099F7AE014F5D5F4FB801CE0101960E94C7
:102FB000F31ABE016F5F7F4FCE0181960E941622E9
:102FC000BE016F5D7F4FCE0101960E944A1FBE0178
:102FD0006F5F7F4FC8010E94162249E0F42EB801AE
:102FE000CE0101960E944A1FBE016F5F7F4FC8014C
:102FF0000E941622FA9499F7AE014F5D5F4FB80117
:10300000CE0101960E94F31ABE016F5F7F4FCE0181
:1030100081960E941622BE016F5D7F4FCE01019600
:103020000E944A1FBE016F5F7F4FC8010E94162297
:1030300033E1F32EB801CE0101960E944A1FBE0172
:103040006F5F7F4FC8010E941622FA9499F7AE0174
:103050004F5D5F4FB801CE0101960E94F31ABE0189
:103060006F5F7F4FCE0181960E941622BE016F5D79
:103070007F4FCE0101960E944A1FBE016F5F7F4FB6
:10308000C8010E94162227E2F22EB801CE01019655
:103090000E944A1FBE016F5F7F4FC8010E94162227
:1030A000FA9499F7AE014F5D5F4FB801CE010196DA
:1030B0000E94F31ABE016F5F7F4FC8010E94162263
:1030C00098E2F92EB801CE0101960E944A1FBE0176
:1030D0006F5F7F4FC8010E941622FA9499F7AE01E4
:1030E0004F5D5F4FB801CE0101960E94F31ABE01F9
:1030F0006F5F7F4FC8010E94162284E0F82EB8014E
:10310000CE0101960E944A1FBE016F5F7F4FC8012A
:103110000E941622FA9499F7AE014F5C5F4FB801F6
:10312000CE0101960E94F31ABE016F5F7F4FC80166
:103130000E941622B801CE0101960E944A1FBE01CC
:103140006F5F7F4FC8010E941622AE014F5B5F4F39
:10315000B801CE0101960E94F31ABE016F5F7F4F46
:10316000CE0181960E941622BE016F5D7F4FCE0177
:1031700001960E944A1FBE016F5F7F4FCE0181966C
:103180000E941622AE014F5D5F4FB801CE0101963D
:103190000E94F31ABE016F5F7F4FC8010E94162282
:1031A000C05BDF4FE6E00C943B27A0E3B0E0EBED23
:1031B000F8E10C941F278C017B01CE0101960E943F
:1031C0004A1FBE016F5F7F4FC8010E941622B801DF
:1031D000C8010E944817A701B801CE0101960E94BC
:1031E000F31ABE016F5F7F4FCE0181960E941622B7
:1031F000AE014F5D5F4FB801CE0101960E94F31AF8
:10320000BE016F5F7F4FC8010E941622E096E6E084
:103210000C943B27CF92DF92FF920F931F93CF9393
:10322000DF93222349F0C62FDC01FB0131913D934E
:103230003E2F3C1B3217D0F3C22FD0E08B010C0F76
:103240001D1F6A01C80FD91FE0E0F0E030E0D8018F
:10325000FD908D01D6014D916D0150E04F0D511D36
:103260004E0F5F1FE52FFF2749933F5F303279F7FD
:10327000205E203488F4A22FB0E0EB01CA0FDB1FE0
:103280003881AF01430F511DE52FFF27A80FB91F4C
:103290004C932F5F203479F7DF91CF911F910F91DD
:1032A000FF90DF90CF900895A0E2B0E0EAE5F9E169
:1032B0000C941B278C016B017A01FC01B09680E213
:1032C00011928150E9F7A701B601C8010E94F31AD3
:1032D000570180E1A80EB11CA501B601CE010196EF
:1032E0000E94F31A20E1AE014F5F5F4FB801C801A1
:1032F0000E940A1980E1C80ED11CA701B601CE01B7
:1033000001960E94F31A20E1AE014F5F5F4FB801B2
:10331000C8010E940A19A501B601CE0101960E94BA
:10332000F31A20E2AE014F5F5F4FB801C8010E945F
:103330000A19A096EAE00C943727A0E8B0E0E3EA87
:10334000F9E10C9418274C01DB017E0181E4E80EC1
:10335000F11C6701CE018F579F4FF7012D912193EB
:10336000E817F907D9F7A4E07A2E8E010F5B1F4FFB
:10337000570180E2A80EB11C46ED52E0B501CE0126
:1033800001960E9454197801D501FE01B1968191F0
:103390008D93E017F107D9F720E0AE014F5F5F4F43
:1033A000B801C8010E940A197A9411F7A2962FADAC
:1033B000A297822F8C7190E095958795959587952A
:1033C000A3968FAFA397A1969FADA197892F8695BE
:1033D00086952295220F220F207C822BA2968FAFFA
:1033E000A2979370A1969FAFA19746EB52E0B801C8
:1033F000605E7F4FCE0101960E94541981E090E0FB
:103400008C0F9D1F805C9F4FD501FE01B1962191CD
:103410002D93E817F907D9F720E0AE014F5F5F4F12
:10342000B801C8010E940A19A3961FAEA397A196DE
:103430008FADA19782FB992790F9A2969FAFA29793
:103440008370A1968FAFA197B801605E7F4F46EB66
:1034500052E0CE0101960E945419A2961FAEA29787
:1034600020E0AE014F5F5F4FB801C8010E940A190A
:10347000D401C6018096F60121912D93E817F90732
:10348000D9F7C058DF4FEDE00C943427A0E4B0E04A
:10349000ECE4FAE10C9421278E010F5F1F4FFE012F
:1034A000B1969E012F5B3F4FDB014D91BD01D801CD
:1034B0004D938D011192E217F307B1F7BE016F5FD3
:1034C0007F4F0E949D19C05CDF4FE4E00C943D27C4
:1034D000A0E4B0E0EEE6FAE10C942327DB01FE0164
:1034E00031969E012F5B3F4F4D914193E217F307B9
:1034F000D9F7BE016F5F7F4F0E949D19C05CDF4FFF
:10350000E2E00C943F27CF93DF93FB01208120FF63
:1035100016C0E6E9F2E0EB01DC0120E030E0819149
:10352000499190E0821B930B841B9109292F33272B
:10353000217033278D9382E0E63BF80781F7DF9116
:10354000CF910895A0E4B0E0E8EAFAE10C941D27D9
:103550007C018B01BA01A901CE0101960E94541988
:10356000BE016F5F7F4FC7010E949D19FE01B1969A
:10357000CE018F5B9F4F1192E817F907E1F7F6E94B
:10358000CF2EF2E0DF2EA701BE016F5F7F4FE0E09C
:10359000F0E0D6012D916D01DA018D91AD0130E0A1
:1035A0002E1B3F0B281B3109E32FFF27E170FF275C
:1035B000DB012D93BD01B6EBCB16B2E0DB0649F77C
:1035C00020E0A801BE016F5F7F4FCB010E940A1966
:1035D000BE016F5F7F4FC7010E949D19C05CDF4F26
:1035E000E8E00C9439272F923F924F925F926F92AE
:1035F0007F928F929F92AF92BF92CF92DF92EF9283
:10360000FF920F931F93CF93DF93FC01EA01DB013D
:10361000442755278A012D903D904D905D906880FC
:1036200079808A809B80289C6001269C5001279C81
:10363000B00CC11CD51E399C7001299C9001369C90
:10364000B00CC11CD21E351F379CC00CD11C351FBD
:10365000499CE30EF01C011D489C9001469CC00C47
:10366000D11CE21E351F389CD00CE11C351F599C23
:10367000F30E001D111D579C9001479CD00C211D7D
:10368000351F569CD00C211D351F589CE20E031E81
:10369000151EF00C011D151FA082B182C282D382BB
:1036A0005A012D913D914D916C817D818E819F813B
:1036B000269FE00CF11C051FB51E279FF00C011D75
:1036C000B51E369FF00C011D1B1DA51E289F000D69
:1036D000111DA51E379F000D111DA51E469F000D33
:1036E000111DA51EBB24299F100DA11CB51E389FBE
:1036F000100DA11CB51E479F100DA11CB51E221A4E
:10370000330A440A2D91520A0008661A770A880A79
:10371000990A110820243024402450246124712463
:10372000812491242018300840085008611871083D
:1037300081089108012400FA269F100DA11CB51ED6
:10374000399F3327A00CB11C351F489FA00CB11C1A
:10375000351F279FA00CB11C351F499F4427B00C73
:10376000311D451F289FB00C311D451F299F300D6D
:10377000411D882799272227269CB001279C700D80
:10378000811D369C700D811D951F289C800D911DFB
:10379000251F379C800D911D251F469C800D911D76
:1037A000251F299C2224900D211D251E389C900D3B
:1037B000211D251E479C900D211D251E569C900DF8
:1037C000211D251E399C3324200D211C351E489CAB
:1037D000200D211C351E579C200D211C351E499C97
:1037E0004424200C311C451E589C200C311C451EC5
:1037F000599C300C411C608071806E0C7F1CC01E77
:10380000D11EEA1CFB1C031F141F882480F88A9415
:10381000581D052E05946825782588259825282586
:10382000282438244824880C661E771EC81ED91EFA
:10383000E21EF21C031D141DA51EB01C301D401DF0
:1038400064827582C682D782B701C8012A2D5B2D9A
:10385000CC24DD24760186012D903D904D905D9025
:10386000688479848A849B84269C5001279CB00CB0
:10387000C11C369CB00CC11CD11E289CC00CD11C94
:10388000E11E379CC00CD11CE11E469CC00CD11C13
:10389000E11E299CD00CE11CF11E389CD00CE11CCF
:1038A000F11E479CD00CE11CF11E569CD00CE11C73
:1038B000F11E6A0D608B7B1D718B8C1D828B9D1D93
:1038C000938BA21EA48AB51EB58AC31ED41E0008FF
:1038D0000F9244275527399CE00CF11C051F489C8A
:1038E000E00CF11C051F579CE00CF11C051F499CC6
:1038F000F00C011D151F589CF00C011D151F599C43
:10390000000D111D5A012D913D914D916C857D85C4
:103910008E859F85269FE00CF11C051FB51E279FF5
:10392000F00C011DB51E369FF00C011D1B1DA51EC0
:10393000289F000D111DA51E379F000D111DA51EEE
:10394000469F000D111DA51EBB24299F100DA11C13
:10395000B51E389F100DA11CB51E479F100DA11C50
:10396000B51E221A330A440A2D91520A0008661A1B
:10397000770A880A990A1108202430244024502408
:1039800061247124812491242018300840085008B3
:103990006118710881089108012400FA269F100D12
:1039A000A11CB51E399F3327A00CB11C351F489FA1
:1039B000A00CB11C351F279FA00CB11C351F499FBF
:1039C0004427B00C311D451F289FB00C311D451FE9
:1039D000299F300D411D882799272227269CB00159
:1039E000279C700D811D369C700D811D951F289C94
:1039F000800D911D251F379C800D911D251F469C14
:103A0000800D911D251F299C2224900D211D251E0E
:103A1000389C900D211D251E479C900D211D251EB3
:103A2000569C900D211D251E399C3324200D211CF0
:103A3000351E489C200D211C351E579C200D211C35
:103A4000351E499C4424200C311C451E589C200CDA
:103A5000311C451E599C300C411C648875886E0CC5
:103A60007F1CC01ED11EEA1CFB1C031F141F551F08
:103A70000F900194E00C0024F01C001D101D882400
:103A800080F88A94581D052E059468257825882588
:103A900098252825282438244824880C661E771E5B
:103AA000C81ED91EE21EF21C031D141DA51EB01C4B
:103AB000301D401D648A758AC68AD78AE08EF18ED1
:103AC000028F138FA48EB58E368F478F50972D900F
:103AD0003D904D905D902D913D914D915D91AD90BA
:103AE000BD90CD90DD90ED90FD900D911C912A1828
:103AF0003B084C085D082E093F09400B510B00089C
:103B0000688079808A809B806C817D818E819F8195
:103B1000A884B984CA84DB84EC84FD840E851F8567
:103B20006A187B088C089D086E097F09800B910B31
:103B300011082024302440245024202530254025FD
:103B400050256124712481249124612571258125CA
:103B500091252018300840085008200930094009F4
:103B6000500961187108810891086109710981097A
:103B70009109AA27BB2701240F928D01289C60017F
:103B8000269C5001279CB00CC11CDA1E399C700188
:103B9000299CE001369CB00CC11CDC1EDA1F379C4E
:103BA000C00CD11CDA1F499CED0EF01C011D489C75
:103BB000E001469CC00CD11CEC1EDA1F389CD00CD6
:103BC000E11CDA1F599CFD0E001D111D579CE001E0
:103BD000479CD00CC11DDA1F569CD00CC11DDA1FAA
:103BE000589CEC0E0D1E1A1EF00C011D1A1F221AF5
:103BF000330A440A550A0008661A770A880A990A9D
:103C0000110820243024402450246124712481246C
:103C10009124201830084008500861187108810864
:103C20009108012400FA289FE001269FE00CF11C76
:103C30000C1FDA1F279FF00C011DDA1F399F1D0F83
:103C4000A01DB11D299FE001369FF00C011D1C1F16
:103C50002227D21F379F000D111DD21F499FAD0F84
:103C6000B01D2227211D489FE001469F000D111D18
:103C7000AC1F0024D01D389F100DA11D3327D31F6A
:103C8000599FBD0F201D9927911D579FE001479F08
:103C9000100DC11DD31F569F100DC11DD31F589F5E
:103CA000AC0F0D1E131EB00D211D931F289CB001DB
:103CB000269CA001279C500D611D731F399C802DEF
:103CC000022C212C099CE001369C500D611D7C1FAB
:103CD000D31F379C600D711DD31F499C8D0F201C75
:103CE000311D489CE001469C600D711D8C1F002415
:103CF000D01D389C700D811D3324D31D599C2D0E71
:103D0000301D9924911C579CE001479C700DC11DEA
:103D1000D31D569C700DC11DD31D589C8C0F0D1EBC
:103D2000131C200C311D931C25013601AE0CBF1C49
:103D3000C01ED11EEA1EFB1E021F191F002400F820
:103D40000A94301C132C15944025502560257025AD
:103D50008025202430259024000CA41EB51EC61EEC
:103D6000D71EE81EF21C031F191DA31DB11D211D26
:103D7000911D392F408151816281738184819581A8
:103D8000868097800F900094102C15944024502426
:103D900060247024A024B024C024D024E024F02483
:103DA00000251025A025B02520253025C02DCC0FBD
:103DB000441D551D661D771D8A1D9B1D8C1C9D1C59
:103DC000CC27CC1F20883188420D531D4087518756
:103DD000A10122883388621D731D62877387B10138
:103DE00024883588821D931D84879587C101268884
:103DF0003788821C931C8686978641012224221CC8
:103E0000C6954E1D5F1D601F711F8A1F9B1F821E5E
:103E1000931E0C1E1C1E408C518C628C738CA48CC7
:103E2000B58CC68CD78C2694441D551D661D771DF8
:103E30008A1D9B1D8C1C9D1C021C121C408B518BCF
:103E4000628B738B848B958B868A978A400C511C6E
:103E5000611C711CA11CB11CC11CD11C408E518E57
:103E6000628E738EA48EB58EC68ED78E1124DF918E
:103E7000CF911F910F91FF90EF90DF90CF90BF9067
:103E8000AF909F908F907F906F905F904F903F90FA
:103E90002F9008952F923F924F925F926F927F9250
:103EA0008F929F92AF92BF92CF92DF92EF92FF924A
:103EB0000F931F93CF93DF93FC01EB012880398090
:103EC0004A805B806C807D808E809F80AA27BB2784
:103ED000239C50016D01249CB00CC11C7D01259CCC
:103EE000C00CD11C349CC00CD11CEA1E269CD00CEA
:103EF000E11C359CD00CE11CFA1E8D01279CE00CC6
:103F0000F11C0A1F369CE00CF11C0A1F459CE00CBA
:103F1000F11C0A1F289CF00C011D1A1F379CF00C85
:103F2000011D1A1F469CF00C011D1A1F9D01299CA2
:103F3000000D111D2A1F389C000D111D2A1F479CC2
:103F4000000D111D2A1F569C000D111D2A1FAA1CB1
:103F5000BB1CCC1CDD1CEE1CFF1C001F990B229C03
:103F60000082212C339CA001449CB001559CA20CE2
:103F7000A182B41EB282C51EC382D61ED482E71EA1
:103F8000E582F01CF682011D07839A0B399C100D07
:103F9000211D3A1F489C100D211D3A1F579C100DE2
:103FA000211D3A1FAD01499C200D311D4A1F589C0F
:103FB000200D311D4A1F679C200D311D4A1F599C41
:103FC000300D411D5A1F689C300D411D5A1FBD0107
:103FD000699C400D511D6A1F789C400D511D6A1F40
:103FE000799C500D611D7A1F8827899C600D711D79
:103FF0008A1F111F221F331F441F551F661F771F63
:10400000881F669C9195090E1A1E5001779C6001CD
:10401000889C7001999C10011A0D2B1D3C1D4D1D93
:104020005E1D6F1D721D831D288439844A845B8444
:104030006C847D848E849F84239C50016D01249C1C
:10404000B00CC11C7D01259CC00CD11C349CC00C43
:10405000D11CEA1E269CD00CE11C359CD00CE11C26
:10406000FA1E0A2F279CE00CF11C0A1F369CE00C5C
:10407000F11C0A1F459CE00CF11C0A1F289CF00C47
:10408000011DAB1F379CF00C011DAB1F469CF00CB3
:10409000011DAB1F299C000DA11DBB0B389C000D01
:1040A000A11DB040479C000DA11DB040569C000DC5
:1040B000A11DB040B195AA0CBB1CCC1CDD1CEE1C94
:1040C000FF1C001F990BA20EB31EC41ED51EE61EB8
:1040D000F71E081F9040229C9001339CA001449C35
:1040E000B001559C210F208BA31EA18AB41EB28A59
:1040F000C51EC38AD61ED48AE71EE58AF01CF68A3E
:10410000011D078B904011273327399CA00DB11D4D
:10411000311F489CA00DB11D311F579CA00DB11D32
:10412000311F412F499CB00D311D411F589CB00DCE
:10413000311D411F679CB00D311D411F512F599CEE
:10414000300D411D511F689C300D411D511F612FC5
:10415000699C400D511D611F789C400D511D611FD0
:10416000712F799C500D611D711F8827899C600DEE
:10417000711D811FAA1FBB1F331F441F551F661FC0
:10418000771F881F669C9195090E111E5001779C20
:104190006001889C7001999CAA0DA08FBB1DB18FF6
:1041A0003C1D328F4D1D438F5E1D548F6F1D658FDB
:1041B000701D768F811D878FA880B980CA80DB80B3
:1041C000EC80FD800E811F812A183B084C085D0899
:1041D0006E087F08800A910ABB27AA0B2A263A2676
:1041E0004A265A266A267A268A269A26A1952A0ED1
:1041F0003B1E4B1E5B1E6B1E7B1E8B1E9B1EAA272F
:10420000239C50016D01249CB00CC11C7D01259C98
:10421000C00CD11C349CC00CD11CEA1E269CD00CB6
:10422000E11C359CD00CE11CFA1E8D01279CE00C92
:10423000F11C0A1F369CE00CF11C0A1F459CE00C87
:10424000F11C0A1F289CF00C011D1A1F379CF00C52
:10425000011D1A1F469CF00C011D1A1F9D01299C6F
:10426000000D111D2A1F389C000D111D2A1F479C8F
:10427000000D111D2A1F569C000D111D2A1FAA1C7E
:10428000BB1CCC1CDD1CEE1CFF1C001F990B229CD0
:10429000E001339CA001449CB001559CAD0EB41EBE
:1042A000C51ED61EE71EF01C011D9A0B399C100D71
:1042B000211D3A1F489C100D211D3A1F579C100DBF
:1042C000211D3A1FAD01499C200D311D4A1F589CEC
:1042D000200D311D4A1F679C200D311D4A1F599C1E
:1042E000300D411D5A1F689C300D411D5A1FBD01E4
:1042F000699C400D511D6A1F789C400D511D6A1F1D
:10430000799C500D611D7A1F8827899C600D711D55
:104310008A1F111F221F331F441F551F661F771F3F
:10432000881F669C9195090E1A1E1001779C20012A
:10433000889C3001999C120D231D341D451D561D6E
:10434000671D701D811D20883188428853886488CC
:10435000758886889788C219A308B408C508D60846
:10436000E708F80809090008D081DC1BD087D18153
:10437000DA09D187D281DB09D287D381DC09D387DF
:10438000D481DD09D487D581DE09D587D681DF09BF
:10439000D687D781D00BD787210A320A430A540A1D
:1043A000650A760A870A980AAA0BA08CB18CC28C7F
:1043B000D38CE48CF58C068D178D000C2A1C3B1CCD
:1043C0004C1C5D1C6E1C7F1C801E911E208A318A35
:1043D000428A538A648A758A868A978A2227A21F0C
:1043E000BA2FB595AA0EBB1ECB1EDB1EEB1EFB1E05
:1043F0000B1F1B1FA08EB18EC28ED38EE48EF58E46
:10440000068F178F1124DF91CF911F910F91FF908D
:10441000EF90DF90CF90BF90AF909F908F907F9064
:104420006F905F904F903F902F9008952227DB016F
:10443000FC01CE01EB011F963C911F9760966F85A2
:10444000660F121E360F121E330F111C36955D912A
:104450007727510D721F6991660F721F560F721FD9
:1044600051935D916991660F221F570F7727271F80
:10447000560F271F51935D916991660F771F520F59
:104480002227721F560F721F51935D916991660F1B
:10449000221F570F7727271F560F271F51935D9114
:1044A0006991660F771F520F2227721F560F721FD6
:1044B00051935D916991660F221F570F7727271F30
:1044C000560F271F51935D916991660F771F520F09
:1044D0002227721F560F721F51935D916991660FCB
:1044E000221F570F7727271F560F271F51935D91C4
:1044F0006991660F771F520F2227721F560F721F86
:1045000051935D916991660F221F570F7727271FDF
:10451000560F271F51935D916991660F771F520FB8
:104520002227721F560F721F51935D916991660F7A
:10453000221F570F7727271F560F271F51935D9173
:104540006991660F771F520F2227721F560F721F35
:1045500051935D916991660F221F570F7727271F8F
:10456000560F271F51935D916991660F771F520F68
:104570002227721F560F721F5193370F3083EC01A1
:10458000112408951092C50089E18093C40088E148
:104590008093C10008959091260591110BC010924F
:1045A000C50099E19093C40098E19093C10091E017
:1045B000909326059091C00095FFFCCF8093C60094
:1045C0000895FC0120812223C9F0319649E138E1A8
:1045D00091E080912605811108C01092C50040939A
:1045E000C4003093C100909326058091C00085FFE0
:1045F000FCCF2093C60021912111EBCF0895A4E0B8
:10460000B0E0E5E0F3E20C941B276115710511F1B0
:104610008C015C01A60EB71ECE0101967C0185E5DA
:10462000C82E83E0D82EF80181918F011F928F93BD
:10463000DF92CF92FF92EF920E94CE28C7010E9494
:10464000E1220F900F900F900F900F900F900A158E
:104650001B0549F72496EAE00C943727ACE1B0E05B
:10466000E4E3F3E20C941327922E832E742E652E2E
:10467000562E472E382E292E188EA0E00E9478271D
:1046800009F44DC09E01285E3F4F3C8F2B8F86E181
:1046900090E09A8F898F9AE0A92EB12CC12CD12C51
:1046A000E12CF12C00E010E0292D382D472D562D5E
:1046B000652D742D832D922D0E94B426205DEB8DE7
:1046C000FC8D2293FC8FEB8F298D3A8D215031097F
:1046D0003A8F298F292D382D472D562D652D742D74
:1046E000832D922D0E94B626922E832E742E652E37
:1046F000562E472E382E292EA0E00E94782759F6F4
:10470000898D9A8D0196E1E0F0E0EC0FFD1F8E0F90
:104710009F1F0E94E1226C96E2E10C942F278BE50B
:1047200093E00E94E12287E190E0EDCFA0E0B0E0CD
:10473000ECE9F3E20C9417274B013A01E9010E94DE
:10474000E12285E793E00E94E1228FEF8816980628
:10475000B1F08DE593E00E94E122A12CB12CC12C97
:10476000D12C7601940140E050E060E070E080E000
:1047700090E00E942E238FE593E00E94E122219792
:10478000209729F14301612C712C8FEF681A780A68
:10479000F401208588E0880E911C3185428553857F
:1047A0006485758586859785A080B180C280D38019
:1047B000E480F580068117810E946F270E942E23D6
:1047C00086E793E00E94E1226C167D06F0F28EE609
:1047D00093E00E94E122CDB7DEB7EEE00C943327E0
:1047E0008F929F92AF92BF92CF92DF92EF92FF9201
:1047F000CF93DF934B01EA010E94E12285E793E02A
:104800000E94E1228FEF8816980689F08DE593E0EB
:104810000E94E122940140E050E060E070E080E01E
:1048200090E00E942E238FE593E00E94E1229E01FA
:1048300040E050E060E070E080E090E00E942E23D5
:1048400082E693E00E94E122DF91CF91FF90EF900A
:10485000DF90CF90BF90AF909F908F90089584E0AD
:104860000E94CB22FFCFEC0180E793E00E94E1227F
:10487000CE010E94E1228EE693E00E94E1220E9496
:104880002F248FEF9FEF0E949E2B1F920F920FB647
:104890000F9211242F933F934F935F936F937F93C6
:1048A0008F939F93209128053091290540912A05E7
:1048B00050912B0560912C0570912D0580912E054E
:1048C00090912F055F5F6F4F7F4F8F4F9F4F2093CA
:1048D00028053093290540932A0550932B056093B2
:1048E0002C0570932D0580932E0590932F059F9195
:1048F0008F917F916F915F914F913F912F910F9089
:104900000FBE0F901F901895A0E0B0E0EAE8F4E227
:104910000C94182780912705811123C01092280537
:104920001092290510922A0510922B0510922C0541
:1049300010922D0510922E0510922F0581E085BD55
:1049400084E08093810080916F00816080936F008C
:1049500016BC1092850010928400789481E08093B8
:104960002705809084009090850086B5E091280509
:10497000E82BD0912905C0912A05B0912B05A09173
:104980002C05F0912D0570902E0510912F05A12C6E
:10499000B12CC12CD12C7601940140E050E060E0B4
:1049A00070E080E090E008E00E944A27E22BD32BE1
:1049B000C42BB52BA62BF72B2E2F3D2F4C2F5B2F67
:1049C0006A2F7F2F8729912BCDB7DEB7EDE00C94AE
:1049D0003427A8E2B0E0EFEEF4E20C94152761E092
:1049E00070E080E290E00E948427909325058093F8
:1049F0002405892B09F4AAC161E070E080E290E00F
:104A00000E9484279093230580932205009709F440
:104A1000A2C1282FE0912405F091250581E0819322
:104A20008F5F8132E1F7E22FF92F82E081938F5F70
:104A30008232E1F72E0189E2480E511CFE013196C7
:104A40003F010E948424F3012083318342835383F6
:104A50006483758386839783F8E06F0E711C4AEF39
:104A600050E062E474E082E694E00E9495026414EF
:104A7000750439F725E030E0AE014F5F5F4F6FEF0F
:104A80007FEF84E293E00E949623CE0101963C01E1
:104A90000E948424F30120833183428353836483FF
:104AA000758386839783F8E06F0E711C62EE74E065
:104AB00082EC94E00E943D0C4614570449F725E02F
:104AC00030E0AE014F5F5F4F6FEF7FEF80E393E029
:104AD0000E949623CE0101963C010E948424F3019A
:104AE00020833183428353836483758386839783D2
:104AF000F8E06F0E711C92EE892E94E0992E22EC54
:104B0000A22E24E0B22E30E4C32ED12CE12CF12CC5
:104B100000E010E020E030E04AEF53E06AE374E0A8
:104B20008AE793E00E947C0C46145704B1F625E016
:104B300030E0AE014F5F5F4F6FEF7FEF88E393E0B0
:104B40000E949623CE0101963C0165010E948424B7
:104B5000F301208331834283538364837583868387
:104B60009783F8E06F0E711CDF92CF928091410421
:104B70008F93809140048F9380913F048F93809115
:104B80003E048F9380913D048F9380913C048F93DA
:104B900080913B048F9380913A048F938AE7E82EAB
:104BA00083E0F82E00E410E020E030E040E050E048
:104BB00060E070E08AEF93E00E948E0D909379039D
:104BC000809378030FB6F894DEBF0FBECDBF4614B6
:104BD000570409F0BBCF25E030E0AE014F5F5F4FD7
:104BE0006FEF7FEF8DE393E00E949623FE013196F5
:104BF0003F010E948424F301208331834283538345
:104C00006483758386839783F8E06F0E711C4AEF87
:104C100050E062E474E082E694E00E94950246145B
:104C2000570439F725E030E0AE014F5F5F4F6FEF7B
:104C30007FEF84E293E00E949623CE0101963C012F
:104C40000E948424F301208331834283538364834D
:104C5000758386839783F8E06F0E711C02EA14E077
:104C600022E634E0A901B901C9010E94DB0846141B
:104C7000570431F725E030E0AE014F5F5F4F6FEF33
:104C80007FEF84E493E00E949623CE0101963C01DD
:104C90000E948424F30120833183428353836483FD
:104CA000758386839783F8E06F0E711C42E654E0AB
:104CB00062EB74E082EA94E00E94ED04461457042B
:104CC00039F725E030E0AE014F5F5F4F6FEF7FEFC8
:104CD0008CE493E00E949623CE0101963C010E9451
:104CE0008424F30120833183428353836483758357
:104CF00086839783F8E06F0E711C42EA54E062E607
:104D000074E0CB010E94B2056414750441F725E0FC
:104D100030E0AE014F5F5F4F6FEF7FEF8AE493E0CB
:104D20000E94962380912405909125050E943828A1
:104D300080912205909123050E9438280E942F24FB
:104D400080E090E0A896E0E10C94312786EF92E0B5
:104D50000E94332451CE8DE093E00E9433242091B1
:104D600022059091230556CE689401C0E8948F9255
:104D70009F92CF93DF930E94C226DF91CF919F90A5
:104D80008F90089588249924F401E401B0E49F935E
:104D9000AA279A158B049C04ED05FE05CF05D007C4
:104DA000A10798F4AD2FDC2FCF2FFE2FE92D982CE3
:104DB000892E982F872F762F652F542F432F322F30
:104DC0002227B85031F7BF9127C01B2EBF91BB27B8
:104DD000220F331F441F551F661F771F881F991FFF
:104DE000881C991CEE1FFF1FCC1FDD1FAA1FBB1FB5
:104DF0008A149B04EC05FD05CE05DF05A007B1076D
:104E000048F08A189B08EC09FD09CE09DF09A00BC0
:104E1000B10B21601A94E1F62EF49401AF01BE01AA
:104E2000CD01000C08952F923F924F925F926F92A6
:104E30007F928F929F92AF92BF92CF92DF92EF922A
:104E4000FF920F931F93CF93DF93CDB7DEB7CA1BAB
:104E5000DB0B0FB6F894DEBF0FBECDBF19942A88C6
:104E6000398848885F846E847D848C849B84AA847E
:104E7000B984C884DF80EE80FD800C811B81AA810B
:104E8000B981CE0FD11D0FB6F894DEBF0FBECDBFD6
:104E9000ED0108950F93083090F0982F872F762F0B
:104EA000652F542F432F322F22270850F4CF220F83
:104EB000331F441F551F661F771F881F991F0A95B0
:104EC000B2F70F9108950024A7FD00942A0F301D1A
:104ED000401D501D601D701D801D901D08952A19D4
:104EE0003B094C095D096E097F09800B910B089500
:104EF0000024A7FD00942A173005400550056005E1
:104F000070058005900508950F931F93CF93DF934D
:104F1000869F8001879F100D969F100D1124C80158
:104F20000E94A027EC01009729F0A80160E070E042
:104F30000E94C728CE01DF91CF911F910F91089554
:104F4000CF93DF938230910510F482E090E0E091FE
:104F50003205F091330520E030E0A0E0B0E030977A
:104F600039F14081518148175907B8F0481759075E
:104F700071F482819381109729F013969C938E93FC
:104F800012972CC0909333058093320527C02115CA
:104F9000310531F04217530718F0A901DB0101C0B8
:104FA000EF019A01BD01DF010280F381E02DD7CF2F
:104FB00021153105F9F0281B390B2430310580F417
:104FC0008A819B816115710521F0FB0193838283A6
:104FD00004C09093330580933205FE01329644C09D
:104FE000FE01E20FF31F819391932250310939831F
:104FF00028833AC02091300530913105232B41F4AC
:105000002091020230910302309331052093300544
:1050100020910002309101022115310541F42DB794
:105020003EB74091040250910502241B350BE091DC
:105030003005F0913105E217F307A0F42E1B3F0B6A
:105040002817390778F0AC014E5F5F4F24173507FA
:1050500048F04E0F5F1F5093310540933005819308
:10506000919302C0E0E0F0E0CF01DF91CF9108958D
:10507000CF93DF93009709F487C0FC013297138226
:105080001282C0913205D0913305209781F420819E
:105090003181280F391F8091300590913105821799
:1050A000930779F5F0933105E09330056DC0DE018B
:1050B00020E030E0AE17BF0750F412964D915C919E
:1050C00013979D014115510509F1DA01F3CFB3831F
:1050D000A28340815181840F951F8A179B0771F429
:1050E0008D919C911197840F951F029691838083D7
:1050F00012968D919C91139793838283211531058C
:1051000029F4F0933305E09332053EC0D90113969C
:10511000FC93EE9312974D915D91A40FB51FEA1782
:10512000FB0779F480819181840F951F0296D90144
:1051300011969C938E938281938113969C938E9368
:105140001297E0E0F0E08A819B81009719F0FE0160
:10515000EC01F9CFCE01029628813981820F931F8D
:1051600020913005309131052817390769F43097BF
:1051700029F4109233051092320502C01382128274
:10518000D0933105C0933005DF91CF910895DC01B4
:1051900001C06D9341505040E0F708950F931F9365
:1051A000CF93DF93CDB7DEB72E970FB6F894DEBF5F
:1051B0000FBECDBF0E891F8986E08C831A830983B9
:1051C0008FEF9FE79E838D83AE01465E5F4F688DB4
:1051D000798DCE0101960E94FD28EF81F885E00FC0
:1051E000F11F10822E960FB6F894DEBF0FBECDBF12
:1051F000DF91CF911F910F9108952F923F924F927F
:105200005F926F927F928F929F92AF92BF92CF9256
:10521000DF92EF92FF920F931F93CF93DF93CDB75F
:10522000DEB72C970FB6F894DEBF0FBECDBF7C0162
:105230006B018A01FC0117821682838181FFBDC147
:10524000CE0101964C01F7019381F60193FD859102
:1052500093FF81916F01882309F4ABC1853239F442
:1052600093FD859193FF81916F01853229F4B701F8
:1052700090E00E940E2BE7CF512C312C20E0203201
:10528000A0F48B3269F030F4803259F0833269F443
:1052900020612CC08D3239F0803339F4216026C072
:1052A0002260246023C0286021C027FD27C030ED84
:1052B000380F3A3078F426FF06C0FAE05F9E300DD2
:1052C0001124532E13C08AE0389E300D1124332E42
:1052D00020620CC08E3221F426FD6BC1206406C012
:1052E0008C3611F4206802C0883641F4F60193FD33
:1052F000859193FF81916F018111C1CF982F9F7D7F
:105300009554933028F40C5F1F4FFFE3F9830DC0D1
:10531000833631F0833771F0833509F05BC022C0EA
:10532000F801808189830E5F1F4F44244394512CE0
:10533000540115C03801F2E06F0E711CF801A08015
:10534000B18026FF03C0652D70E002C06FEF7FEFD4
:10535000C5012C870E94032B2C0183012C852F77FC
:10536000222E17C03801F2E06F0E711CF801A080E8
:10537000B18026FF03C0652D70E002C06FEF7FEFA4
:10538000C5012C870E94F82A2C012C852068222E2A
:10539000830123FC1BC0832D90E048165906B0F40E
:1053A000B70180E290E00E940E2B3A94F4CFF50111
:1053B00027FC859127FE81915F01B70190E00E9453
:1053C0000E2B31103A94F1E04F1A51084114510458
:1053D00071F7E5C0843611F0893639F5F80127FFF9
:1053E00007C060817181828193810C5F1F4F08C06B
:1053F00060817181882777FD8095982F0E5F1F4F00
:105400002F76B22E97FF09C0909580957095619583
:105410007F4F8F4F9F4F2068B22E2AE030E0A401CB
:105420000E94402BA82EA81844C0853729F42F7E4F
:10543000B22E2AE030E025C0F22FF97FBF2E8F3642
:10544000C1F018F4883579F0B4C0803719F0883786
:1054500021F0AFC02F2F2061B22EB4FE0DC08B2DD6
:105460008460B82E09C024FF0AC09F2F9660B92E11
:1054700006C028E030E005C020E130E002C020E1B5
:1054800032E0F801B7FE07C06081718182819381AB
:105490000C5F1F4F06C06081718180E090E00E5F5D
:1054A0001F4FA4010E94402BA82EA818FB2DFF77A8
:1054B000BF2EB6FE0BC02B2D2E7FA51450F4B4FECC
:1054C0000AC0B2FC08C02B2D2E7E05C07A2C2B2DD5
:1054D00003C07A2C01C0752C24FF0DC0FE01EA0D1B
:1054E000F11D8081803311F4297E09C022FF06C09E
:1054F0007394739404C0822F867809F0739423FD0B
:1055000013C020FF06C05A2C731418F4530C5718FC
:10551000732C731468F4B70180E290E02C870E942A
:105520000E2B73942C85F5CF731410F4371801C02B
:10553000312C24FF12C0B70180E390E02C870E9439
:105540000E2B2C8522FF17C021FF03C088E590E0B9
:1055500002C088E790E0B7010CC0822F867859F02E
:1055600021FD02C080E201C08BE227FD8DE2B70180
:1055700090E00E940E2BA51438F4B70180E390E070
:105580000E940E2B5A94F7CFAA94F401EA0DF11D54
:105590008081B70190E00E940E2BA110F5CF33203F
:1055A00009F451CEB70180E290E00E940E2B3A94AC
:1055B000F6CFF7018681978102C08FEF9FEF2C967F
:1055C0000FB6F894DEBF0FBECDBFDF91CF911F9114
:1055D0000F91FF90EF90DF90CF90BF90AF909F9092
:1055E0008F907F906F905F904F903F902F90089595
:1055F000FC010590615070400110D8F7809590959E
:105600008E0F9F1F0895FC016150704001900110A2
:10561000D8F7809590958E0F9F1F08950F931F9335
:10562000CF93DF93182F092FEB018B8181FD03C0EE
:105630008FEF9FEF20C082FF10C04E815F812C81D1
:105640003D81421753077CF4E881F9819F012F5F68
:105650003F4F39832883108306C0E885F985812F61
:105660001995892B29F72E813F812F5F3F4F3F836B
:105670002E83812F902FDF91CF911F910F9108954D
:10568000FA01AA27283051F1203181F1E8946F9373
:105690006E7F6E5F7F4F8F4F9F4FAF4FB1E03ED019
:1056A000B4E03CD0670F781F891F9A1FA11D680FB7
:1056B000791F8A1F911DA11D6A0F711D811D911DEA
:1056C000A11D20D009F468943F912AE0269F11245F
:1056D0003019305D3193DEF6CF010895462F4770C3
:1056E000405D4193B3E00FD0C9F7F6CF462F4F701E
:1056F000405D4A3318F0495D31FD4052419302D07C
:10570000A9F7EACFB4E0A695979587957795679521
:10571000BA95C9F700976105710508959B01AC0121
:105720000A2E06945795479537952795BA95C9F748
:10573000620F731F841F951FA01D0895F894FFCF5B
:105740000000340520000300130016000B00310296
:105750005106C3094103A201420039007200000052
:105760000000000000000000000000000000481AD7
:10577000934EA651B3AEE7C24920DCC3E01BDF362F
:105780007EE01898656430A6AB8ECD16B4231E4417
:105790001572053DAEC74DA24744385CB35DD7AB2B
:1057A0007917331D0B2CE32F11129925F70D49049E
:1057B00039028000C10343A8DDCDD8E3F746DDA25E
:1057C00020A3EF0EF540310011000B002100C707A8
:1057D00079163F17591243FAF37BB4F48CB800AB37
:1057E0005E0636803D2D6BAD38DF6729CBFCFFFFB1
:1057F000FFFFFFFFFF03BD050C844B0B7347FF54F6
:10580000A1F9C97FC2D29452C72098D634030000B0
:10581000000000000000406F0103E1D2C2DCD13F74
:1058200055687EF29FB034A5D43108A635CD00006E
:10583000000000000000616C6C6F636174696F6E42
:10584000206F66206E206661696C656400616C6C17
:105850006F636174696F6E206F6620702066616986
:105860006C6564006C61646465725F62617365009D
:105870006B657970616972007369676E0076657235
:1058800069667900636865636B006465636F6D705A
:10589000726573730025303278200030005B005D44
:1058A000200020737461636B2062797465730A0051
:0858B0004552524F523A20000C
:00000001FF
