:100000000C94B4000C94D5000C94D5000C94D5003D
:100010000C94D5000C94D5000C94D5000C94D5000C
:100020000C94D5000C94D5000C94D5000C94D500FC
:100030000C94D5000C94D5000C94D5000C94D500EC
:100040000C94D5000C94D5000C94D5000C94D500DC
:100050000C94D5000C94D5000C94D5000C94D500CC
:100060000C94D5000C94D5000C94D5000C94D500BC
:100070000C94D5000C94D5000C94D5000C94D500AC
:100080000C94D5000C94D5000C94D5000C94D5009C
:100090000C94D5000C94D5000C94D5000C94D5008C
:1000A0000C94D5000C94D5000C94D5000C94D5007C
:1000B0000C94D5000C94D5000C94D5000C94D5006C
:1000C0000C94D5000C94D5000C94D5000C94D5005C
:1000D0000C94D5000C94D5000C94D5000C94D5004C
:1000E0000C94D5000C949A0A0C94830F0C94260A55
:1000F0000C94430A0C94430D0C947E060C94D51179
:100100000C9435080C9488100C9432230C94C3087A
:100110000C940D090C94D60A0C9495090C9449245E
:100120000C9427110C944E100C943A0F0C941C0153
:100130000C942E020C949A230C94A8060C9493060B
:100140000C94D9100C942C100C941A120C940323B8
:100150000C94DD000C9436060C947E0C0C944C111F
:100160000C9455120C94F50911241FBECFEFD1E267
:10017000DEBFCDBF00E00CBF13E0A0E0B2E0E0E4E2
:10018000F4E500E00BBF02C007900D92A235B10765
:10019000D9F723E0A2E5B3E001C01D92A335B20771
:1001A000E1F70E9443240C941E2A0C940000A0E462
:1001B000B0E0EDEDF0E00C943F266C015B0180E2D5
:1001C000E82EF12C00E010E020E030E040E050E0CC
:1001D000C5010E944803B501605E7F4FC6010E94C1
:1001E00026104AEF50E0B601CE0101960E94200A87
:1001F000AE014F5F5F4FBE016F5C7F4FCE018196B6
:100200000E94780CBE016F5D7F4FC6010E9462069E
:10021000BE016F5C7F4FC60140960E94620680E07F
:1002200090E0C05CDF4FEAE00C945B26AEE6B0E005
:10023000ECE1F1E00C9437263C01FB01B42F552E84
:10024000A296CFAEA297A396DFAEA397A496EFAEE9
:10025000A497A596FFAEA597A6960FAFA697A796CB
:100260001FAFA797A8962FAFA897A9963FAFA997BA
:100270009601A701B801A8968FADA897A9969FAD42
:10028000A997A0E40E946E26AA962FAFAA97AB96D4
:100290003FAFAB971A01AC966FAFAC97AD967FAFFF
:1002A000AD97AE968FAFAE97AF969FAFAF972083C7
:1002B00031832282338264837583AE968FADAE978D
:1002C000868397839601A701B801A8968FADA8975A
:1002D000A9969FADA997A0E00E94832681F0EB2FFD
:1002E000F52DD301A05CBF4FA3968EAD9FADA39714
:1002F0008E0F9F1F21912D93E817F907D9F7D4018D
:10030000230180E2480E511CF20180E090E02D9123
:100310002193019680329105D1F7A2962FADA29735
:10032000A3963FADA397A4964FADA497A5965FADB6
:10033000A597A6966FADA697A7967FADA797A89607
:100340008FADA897A9969FADA997A0E20E946E26AF
:1003500079018A019B01AC01B201C3010E944803EB
:10036000B301CE018F5B9F4F0E9448104AEF50E0CF
:10037000BE016F5B7F4FCE0101960E94200AAE0145
:100380004F5F5F4FBE016F5C7F4FCE0181960E9431
:10039000780CBE016F5D7F4FC3010E94620663014E
:1003A00080E1C80ED11CBE016F5C7F4FC6010E9468
:1003B0006206F501D20180E090E021912D93019633
:1003C00080329105D1F7AA96EFACAA97AB96FFAC15
:1003D000AB978101AC962FADAC97AD963FADAD9785
:1003E000AE964FADAE97AF965FADAF97B301C30179
:1003F0000E944803B301CE0101960E944810BE013D
:100400006F5D7F4FC3010E946206BE016F5C7F4F2C
:10041000C6010E946206BE016F5F7F4FCB010E9442
:100420006310B401605E7F4FC2010E9426109201EA
:10043000AE014F5F5F4FBE016F5B7F4FC2010E94F5
:10044000821080E090E0C259DF4FE2E10C94532625
:10045000A8E2B1E0EEE2F2E00C9437268C016701ED
:10046000C25CDE4F4880CE53D140C15CDE4F588025
:10047000CF53D140C05CDE4F6880C054D140CF5BC9
:10048000DE4F7880C154D140CE5BDE4F8880C254AD
:10049000D140CD5BDE4F9880C354D140CC5BDE4F62
:1004A000A880C454D140CB5BDE4FB880C554D14046
:1004B000CA5BDE4FF880C654D140C95BDE4F28804E
:1004C000C754D1406F2D722DCE018F5F9E4F0E9479
:1004D0005B0CAE014F5F5E4FBE016F577F4FCE0189
:1004E0008F539F4F0E943D0D892B41F081E090E09A
:1004F000C85DDE4FE2E10C945326CAC0B601CE01BE
:100500008F5F9E4F0E945B0CC6018096CF5DDE4FD1
:1005100099838883C152D140BC01CE018F5B9F4F2C
:100520000E9426109201A301B401C501A0EC0E9413
:100530006E26322ECD5DDE4F3883C352D140CC5D66
:10054000DE4F4883C452D140E52ECB5DDE4F688339
:10055000C552D140CA5DDE4F7883C652D140C95DD5
:10056000DE4F8883C752D140C85DDE4F9883C852A2
:10057000D140A0E00E94832679F0F601E05CFF4FB5
:10058000D80190E4491A510880E090E021912D9320
:10059000019684159505D1F7AF2DB22DCF5DDE4FB5
:1005A000E881F981C152D14080E090E02D91219302
:1005B000019680329105D1F7232DCD5DDE4F388134
:1005C000C352D140CC5DDE4F4881C452D1405E2D34
:1005D000CB5DDE4F6881C552D140CA5DDE4F788168
:1005E000C652D140C95DDE4F8881C752D140C85D37
:1005F000DE4F9881C852D140A0E40E946E26790156
:100600008A019B01AC01B601C6010E94480391E436
:10061000E92EF12CEC0EFD1E80E2E80EF11CB60175
:10062000C7010E944810BE016F537F4FCE01019653
:100630000E943D0A0AEF10E09701AE014F5F5F4F45
:10064000BE016F537F4FCE018F579F4F0E948F097E
:100650004AEF50E0BE016F5B7F4FCE018F539F4F3B
:100660000E94200A8E010F5F1E4F9E012F5F3F4F99
:10067000AE014F5B5F4FBE016F577F4FCE018F536F
:100680009F4F0E944F12C85DDE4FE2E10C9453264B
:100690002F923F924F925F926F927F928F929F9292
:1006A000AF92BF92CF92DF92EF92FF920F931F9380
:1006B000CF93DF93EDB7FEB7E05FF0400FB6F8944D
:1006C000FEBFEDBF0FBEB9968F939F93CF01EB0195
:1006D000870142E311921192119211924A95D1F73A
:1006E000083A110598F145E1FC0129913081232751
:1006F0002193299130812327219329913081232728
:100700002193299130812327219329913081232717
:100710002193299130812327219329913081232707
:10072000219329913081232721934150F1F6CF93D2
:10073000DF930F931F930E9476041F910F91DF9117
:10074000CF91085A1040083A110568F6FC01069549
:1007500028F42991308123272193005051F02991C9
:100760003081232721932991308123272193015020
:10077000B1F72FE1308123272083E7EAE80FF92F33
:10078000F11D2081205820830E94760440E1EC0175
:10079000FF91EF91299121932991219329912193FF
:1007A000299121934A95B1F7E7EC8E0F911D0FB671
:1007B000F8949EBF8DBF0FBEDF91CF911F910F9117
:1007C000FF90EF90DF90CF90BF90AF909F908F9071
:1007D0007F906F905F904F903F902F90812D912D43
:1007E0000895010050030938060958021288071BB2
:1007F00090051B18042428043680053F400700A8F4
:100800000212C0061B20032D78013FB80009980092
:100810001B68012D600300100612A0022D70070056
:10082000B0051248042D300400080100000000004B
:10083000000082800000000000008A8000000000AC
:10084000008000800080000000808B80000000009D
:100850000000010000800000000081800080000096
:10086000008009800000000000808A000000000075
:1008700000008800000000000000098000800000E7
:1008800000000A000080000000008B800080000053
:1008900000008B0000000000008089800000000044
:1008A0000080038000000000008002800000000043
:1008B000008080000000000000800A80000000002E
:1008C00000000A000080000000808180008000009D
:1008D0000080808000000000008001000080000097
:1008E00000000880008000000080FF00FC01B89735
:1008F00025E0EC01299039904990599069907990C0
:1009000089909990A096099020240990302409900C
:100910004024099050240990602409907024099083
:10092000802409909024A0960990202409903024D6
:100930000990402409905024099060240990702463
:100940000990802409909024A09609902024099071
:100950003024099040240990502409906024099083
:1009600070240990802409909024A0960990202456
:100970000990302409904024099050240990602463
:10098000099070240990802409909024219231923A
:10099000419251926192719281929192C05AD10981
:1009A000215009F0A7CF6AE278E0FC013897DC011A
:1009B0009097EC0126E12D903D904D905D906D90CB
:1009C0007D908D909D90220C331C441C551C661C00
:1009D000771C881C991C211C019020240190302434
:1009E00001904024019050240190602401907024D3
:1009F000019080240190902435E00880022409921F
:100A000008800324099208800424099208800524A0
:100A10000992088006240992088007240992088018
:100A200008240992088009240992A0963A9529F78A
:100A3000C05CD109269510F439F0BDCF2B3011F4EC
:100A4000B897B9CF9897B7CFA09729903990499088
:100A5000599069907990899099906F937F9322EE45
:100A600037E0ACE9B5E068EE75E0F9010590A590D6
:100A700045919F01FD01E00DF11D0994EC01C40FAA
:100A8000D11DFB01EA0DF11D099428972992399295
:100A90004992599269927992899299921501260107
:100AA00037014801485009F77F916F91EC01DC0153
:100AB0009897FB0108E0A12CB12C6501E12C15E011
:100AC000288038844888588C68A0032C009404201F
:100AD0000224A0240882042C009405200324B024BE
:100AE0000886052C009406200424C024088A062CBD
:100AF000009402200524D024088E2094232026244C
:100B0000E22428A2A8961A95D9F6C85CD1090590C6
:100B1000288020242992BF01FD01A024A192B78240
:100B2000C786D78AE78EDF01FB010A9521F604907C
:100B3000039409F03ACF0895A1CF21C017C00DC08A
:100B400003C027C030C039C0220C331C441C551CC4
:100B5000661C771C881C991C211C220C331C441C0D
:100B6000551C661C771C881C991C211C220C331CEC
:100B7000441C551C661C771C881C991C211C220CCB
:100B8000331C441C551C661C771C881C991C211C9A
:100B900075CF20FA979487947794679457944794E5
:100BA0003794279497F820FA9794879477946794CA
:100BB000579447943794279497F820FA97948794FA
:100BC00077946794579447943794279497F856CF1F
:100BD000A990B990C990D990E990F990099119918B
:100BE00054CFB990C990D990E990F9900991199191
:100BF000A9904BCFC990D990E990F990099119919A
:100C0000A990B99042CFD990E990F99009911991A2
:100C1000A990B990C99039CFE990F99009911991AB
:100C2000A990B990C990D99030CFF99009911991B4
:100C3000A990B990C990D990E99027CF09911991BD
:100C4000A990B990C990D990E990F9901ECF1991C7
:100C5000A990B990C990D990E990F990099115CFD0
:100C6000A0E1B0E0E6E3F6E00C94452621E029831C
:100C70008E010F5E1F4FFE0132961192E017F107B1
:100C8000E1F7AC01BE016F5F7F4FCB010E943A21BB
:100C9000BE016F5F7F4FCB010E948422298181E0DA
:100CA0002827FE0132968191282BE017F107D9F70A
:100CB00081E090E0211102C080E090E06096E4E0E5
:100CC0000C946126FB01DC0180E191919D938150A0
:100CD000E1F70895FB01DC0180E191919D93815042
:100CE000E1F70895FC0180E111928150E9F7089540
:100CF000A0E2B0E0EEE7F6E00C9445268C01CE01D0
:100D000001960E94B115BE016F5F7F4FC8010E941E
:100D1000D41CA096E4E00C946126A0E2B0E0E3E9E4
:100D2000F6E00C9445268C01CE0101960E94081A2B
:100D3000BE016F5F7F4FC8010E94D41CA096E4E003
:100D40000C946126A0E5B0E0E8EAF6E00C944326B6
:100D50008C017B01CE0101960E94081ABE016F5FD3
:100D60007F4FCE018F5B9F4F0E94D41CA701BE0115
:100D70006F5B7F4FCE0101960E94B115BE016F5F80
:100D80007F4FCE01C1960E94D41CBE016F5C7F4F85
:100D9000CE0101960E94081ABE016F5F7F4FCE01FF
:100DA00081960E94D41CBE016F5D7F4FCE010196DB
:100DB0000E94081ABE016F5F7F4FCE0181960E948C
:100DC000D41CAE014F5C5F4FBE016F5D7F4FCE0103
:100DD00001960E94B115BE016F5F7F4FCE01C19693
:100DE0000E94D41CBE016F5C7F4FCE0101960E9411
:100DF000081ABE016F5F7F4FCE0181960E94D41CFE
:100E0000A701BE016F5D7F4FCE0101960E94B11513
:100E1000BE016F5F7F4FCE0181960E94D41CBE0140
:100E20006F5D7F4FCE0101960E94081ABE016F5F71
:100E30007F4FC8010E94D41C54E0F52EB801CE01AA
:100E400001960E94081ABE016F5F7F4FC8010E9481
:100E5000D41CFA9499F7AE014F5D5F4FB801CE01F3
:100E600001960E94B115BE016F5F7F4FCE01819642
:100E70000E94D41CBE016F5D7F4FCE0101960E947F
:100E8000081ABE016F5F7F4FC8010E94D41C49E061
:100E9000F42EB801CE0101960E94081ABE016F5FC0
:100EA0007F4FC8010E94D41CFA9499F7AE014F5DA0
:100EB0005F4FB801CE0101960E94B115BE016F5F70
:100EC0007F4FCE0181960E94D41CBE016F5D7F4F83
:100ED000CE0101960E94081ABE016F5F7F4FC801C4
:100EE0000E94D41C33E1F32EB801CE0101960E947A
:100EF000081ABE016F5F7F4FC8010E94D41CFA948C
:100F000099F7AE014F5D5F4FB801CE0101960E9487
:100F1000B115BE016F5F7F4FCE0181960E94D41C38
:100F2000BE016F5D7F4FCE0101960E94081ABE017F
:100F30006F5F7F4FC8010E94D41C27E2F22EB801D8
:100F4000CE0101960E94081ABE016F5F7F4FC80153
:100F50000E94D41CFA9499F7AE014F5D5F4FB8011F
:100F6000CE0101960E94B115BE016F5F7F4FC8018F
:100F70000E94D41C98E2F92EB801CE0101960E947D
:100F8000081ABE016F5F7F4FC8010E94D41CFA94FB
:100F900099F7AE014F5D5F4FB801CE0101960E94F7
:100FA000B115BE016F5F7F4FC8010E94D41C84E061
:100FB000F82EB801CE0101960E94081ABE016F5F9B
:100FC0007F4FC8010E94D41CFA9499F7AE014F5C80
:100FD0005F4FB801CE0101960E94B115BE016F5F4F
:100FE0007F4FC8010E94D41CB801CE0101960E9417
:100FF000081ABE016F5F7F4FC8010E94D41CAE016A
:101000004F5B5F4FB801CE0101960E94B115BE0142
:101010006F5F7F4FCE0181960E94D41CBE016F5D31
:101020007F4FCE0101960E94081ABE016F5F7F4F6D
:10103000CE0181960E94D41CAE014F5D5F4FB80176
:10104000CE0101960E94B115BE016F5F7F4FC801AE
:101050000E94D41CC05BDF4FE6E00C945F26A0E347
:10106000B0E0E5E3F8E00C9443268C017B01CE016F
:1010700001960E94081ABE016F5F7F4FC8010E944F
:10108000D41CB801C8010E94A206A701B801CE0174
:1010900001960E94B115BE016F5F7F4FCE01819610
:1010A0000E94D41CAE014F5D5F4FB801CE01019686
:1010B0000E94B115BE016F5F7F4FC8010E94D41C12
:1010C000E096E6E00C945F264195DC01FB0120E010
:1010D0009C9180818927842398279D9390819827CC
:1010E00091932F5F2031A1F70895CF93DF9341951E
:1010F000EC01DB0150E038812C9123272423322797
:1011000039933C9132273D935F5F5031A1F7EC0159
:101110006096DB01509650E038812C9123272423E0
:10112000322739933C9132273D935F5F5031A1F7CD
:10113000EC01A096DB01909650E038812C9123279A
:101140002423322739933C9132273D935F5F5031FE
:10115000A1F7DC01D096FB01F09620E09C91808104
:101160008927842398279D939081982791932F5FB7
:101170002031A1F7DF91CF910895A0E0B0E0E3EC3A
:10118000F8E00C943F26EC016B0159010E94801D90
:10119000B601605F7F4FA501CE0140960E94801D81
:1011A000B601605E7F4FA801CE0180960E94801D2F
:1011B000B601605D7F4FA701CE01C0960E94801DE1
:1011C000CDB7DEB7EAE00C945B260F931F93CF9365
:1011D000DF93EC018B010E948D06B801605F7F4FA9
:1011E000CE0140960E948D06B801605E7F4FCE0111
:1011F00080960E948D06B801605D7F4FCE01C0963B
:101200000E948D06DF91CF911F910F910895A0E06C
:10121000B0E0EDE0F9E00C943926EC016B012A0115
:10122000C6010E946D1EBE01CE010E946D1EAE0160
:10123000B601C6010E947806360180E1680E711C75
:10124000AE01405F5F4FB301C3010E9478064601C3
:1012500080E2880E911CAE01405E5F4FB401C40174
:101260000E947806560180E3A80EB11CAE01405DD5
:101270005F4FB501C5010E947806BE01CE010E94F4
:10128000E5088CE0E82E82E0F82E0EE012E020E186
:1012900032E042E152E0B601C6010E94BD0820E101
:1012A00032E042E152E0BE01CE010E94BD08B6012B
:1012B000C6010E946D1EBE01CE010E946D1EB601C8
:1012C000C6010E94E508BE01CE010E94E508A20108
:1012D000405F5F4FB301C3010E947806A201405EE8
:1012E0005F4FB401C4010E947806A201405D5F4FC8
:1012F000B501C5010E94780694E1E92E92E0F92E2D
:1013000006E112E028E132E04AE152E0BE01CE01FE
:101310000E94BD08CDB7DEB7E0E10C945526A0E0F1
:10132000B0E0E5E9F9E00C943B266C017B015A0141
:1013300049010E947206C60140960E947206C601CB
:1013400080960E947206C601C0960E9472068BE0CB
:10135000F601808386E1808B83E180A383E080AB0C
:1013600017FD3AC0612C712C01C03E01F801F595C2
:10137000E795F595E795F595E795E80DF91DC08199
:10138000D0E0C8018770992702C0D595C7958A9586
:10139000E2F7C170DD276C267D26B701C7010E94E8
:1013A0001F22A301B701C6010E947508A501B7015C
:1013B000C6010E94070901501109B8F6B601C6011D
:1013C0000E941F22AE01B701C6010E947508CDB769
:1013D000DEB7EEE00C945726C0E0D0E0EFCFA0E0FF
:1013E000B0E0E5EFF9E00C943F26EC018B016B01D6
:1013F00080E2C80ED11C5B0180E1A80EB11C7E0109
:1014000080E3E80EF11CA601B501C7010E94780631
:10141000005D1F4FA801B501CE0180960E9478069D
:10142000A801B601CE0140960E947806A801B70136
:10143000CE010E947806CDB7DEB7EAE00C945B26B9
:10144000A0E4B0E0E6E2FAE00C9441267C016B01F6
:101450008A016CE172E0CE0101960E94EF099601CB
:101460004CE152E0BE016F5F7F4FC7010E948F09C0
:10147000C05CDF4FE8E00C945D26A0E4B0E0E3E45C
:10148000FAE00C943D267C018B015B0180E2A80E02
:10149000B11C6B0180E1C80ED11CA501B601CE01C3
:1014A000C1960E947806480180E3880E911CA40131
:1014B000BE016F5C7F4FCE0181960E947806BE010F
:1014C0006F5D7F4FCE0141960E942F08A801BE019B
:1014D0006F5E7F4FCB010E947806A401BE016F5E54
:1014E0007F4FCE0101960E947806A501BE016F5F75
:1014F0007F4FC70140960E947806A601BE016F5F2C
:101500007F4FC70180960E947806AE014F5E5F4F05
:10151000BE016F5C7F4FC701C0960E947806C05C19
:10152000DF4FECE00C945926A0E1B0E0EAE9FAE0E4
:101530000C943F267C016B01BA01590140E752E04F
:101540000E94801D4EE652E0B501CE0101960E9438
:10155000801DAE014F5F5F4FB701C7010E943A2166
:101560004CE652E0B801CE0101960E94801DAE010A
:101570004F5F5F4FB701C7010E943A2142E752E037
:10158000B601CE0101960E94801DAE014F5F5F4FF4
:10159000B701C7010E94AC216096EAE00C945B267B
:1015A000A0E1B0E0E6EDFAE00C943F267C016B018F
:1015B000BA0159010E943A21A601B701C7010E9450
:1015C000AC214AE052E0B701C7010E94801D46E00D
:1015D00052E0B501CE0101960E94801DAE014F5F21
:1015E0005F4FB701C7010E943A2144E052E0B801C1
:1015F000CE0101960E94801DAE014F5F5F4FB70183
:10160000C7010E943A216096EAE00C945B26AF92F3
:10161000BF92CF92DF92EF92FF920F93CF93DF931F
:10162000EC017B015A01690146E652E0B5010E94D6
:10163000801DAE01B601CE010E947806011133C0B3
:1016400044E652E0BE01CE010E94801DAE01BE0103
:10165000CE010E943A2140E652E0B501C7010E9446
:10166000801DB701C7010E948D06AE01B701CE01F2
:101670000E94AC2144E652E0B601C7010E94801DE1
:10168000B701C7010E948D06AE01B701CE010E94CD
:101690003A21DF91CF910F91FF90EF90DF90CF90A3
:1016A000BF90AF9008954AE652E0B501C7010E948D
:1016B000801DA701BE01CE010E943A2148E652E0FA
:1016C000B601C7010E94801DA701BE01CE010E9484
:1016D000AC2144E652E0BE01CE010E94801DAE0165
:1016E000BE01CE010E943A2140E652E0B501C70199
:1016F0000E94801DB701C7010E948D06AE01B7018F
:10170000CE010E94AC2144E652E0B601C7010E941E
:10171000801DB701C7010E948D06AE01B701CE0141
:101720000E943A218BE0F70180838CE2818332961C
:1017300022E030E011922F5F3F4F20313105D1F789
:101740009FCF8F929F92AF92BF92CF92DF92EF92F4
:101750000F931F93CF93DF936C01EB015A01490163
:10176000B9010E948D06B801CE010E948D06EE20BF
:1017700009F47FC081E0F50180831182329682E016
:1017800090E01192019680319105D9F7A501B6013B
:10179000C6010E943A21A501BE01CE010E943A2154
:1017A000AE01B601C5010E943A21A801B601C601E9
:1017B0000E9478064AE652E0B601C6010E94801DEA
:1017C000A401BE01CE010E94780648E652E0BE01A7
:1017D000CE010E94801DAE01B601C6010E94AC215F
:1017E00081E088831982FE01329682E090E01192B6
:1017F000019680319105D9F7AE01B501C5010E946E
:10180000AC21AE01B501C5010E94AC2146E652E013
:10181000B501C5010E94801DA501B601C6010E9447
:101820003A2144E652E0B601C6010E94801DA8019B
:10183000B401CE010E9478064EE552E0BE01CE0111
:101840000E94801D4CE552E0BE01CE010E94801D29
:10185000AE01B601C6010E94AC21DF91CF911F916C
:101860000F91EF90DF90CF90BF90AF909F908F90AF
:101870000895A801B601C6010E9478064AE652E022
:10188000B601C6010E94801DA401BE01CE010E94C6
:10189000780648E652E0BE01CE010E94801DAE01EE
:1018A000B601C6010E94AC2144E652E0B601C60171
:1018B0000E94801DD2CFFB01DC0120E030E081914D
:1018C0008D932F5F3F4F20323105C9F70895FC01FA
:1018D000DB018C91808311968C918183329622E07A
:1018E00030E011922F5F3F4F20313105D1F708953D
:1018F000A0E4B0E0EEE7FCE00C9439262C016B018B
:101900007A015A0120E1A20EB11C4A0180E2880E40
:10191000911C3A01E0E36E0E711C8A019501A4014D
:10192000B301CE0101960E94940A85019701A3019B
:10193000B401CE0141960E94940A84019301A7014B
:10194000B501CE0181960E94940A83019401A501FC
:10195000B701CE01C1960E94940ACE0181960E94E1
:101960003006F82E81117CC0CE0141960E943006CF
:10197000892B09F06EC0CE0101960E943006BE018F
:10198000892B09F074C06F5C7F4FC6010E942F083D
:10199000A601BE016F5C7F4FCB010E947806A601B5
:1019A000BE016F5F7F4FC2010E947806A601BE0193
:1019B0006F5E7F4FC6010E9478060F2D9601A2012F
:1019C000BE016F5F7F4FCE0181960E94070BAE0173
:1019D0004F5C5F4FBE016F5D7F4FCB010E94780669
:1019E000EF2C86019201AE014F5E5F4FBE016F5F2B
:1019F0007F4FCE01C1960E94A10BAE014F5C5F4F9D
:101A0000BE016F5D7F4FCB010E94AC21B201C201CC
:101A10000E948422B601C6010E948422BE016F5D2D
:101A20007F4FCB010E948422F794FF24F794F201A8
:101A30008785F82AF78689A1F0E88F9FC0011124D5
:101A4000F6019785982B9787C05CDF4FE0E10C94F7
:101A50005526BE016F5E7F4FC6010E942F0898CFAA
:101A6000BE016F5D7F4FC6010E942F0891CF6F5F4F
:101A70007F4FC6010E942F088BCFA5E0B0E0E3E4C2
:101A8000FDE00C9437269D838C834B016A01BA01DB
:101A90000E946A066C807D8020E1620E711CB60196
:101AA000605F7F4FC3010E946A06EC81FD819785CC
:101AB000F92EFF1CFF24FF1C878DF82FFF1FFF2727
:101AC000FF1FFB839F77EC81FD8197878F77878F3F
:101AD0005F01F0E2AF0EB11C140120E1220E311CB7
:101AE0000F2D93014C815D81B501C1010E94070B4F
:101AF0008C819D81C0969A838983240190E2490E4E
:101B0000511CEF2C83012C813D8149815A81B50103
:101B1000C2010E94A10B6401E0E3CE0ED11CF110C2
:101B200074C042E652E06C817D81C6010E94801D36
:101B3000A301B601C6010E947806B601C6010E9443
:101B40008D06C1010E943006B201892B69F5C201E0
:101B50000E948422C2010E943006892B09F412C11E
:101B6000F40180A1FB818F1709F448C04C815D818D
:101B7000B201C4010E947806A401B401C4010E940C
:101B80003A21A301B201C1010E947806A101B1016D
:101B9000C1010E943A21FF2009F414C1A201B2013F
:101BA000C2010E943A21C9C0C5010E948D06A6014A
:101BB000B10189819A810E94780649815A81B501D3
:101BC000C5010E94AC21B50189819A810E94A206BB
:101BD000A50169817A81CB010E94780669817A81A9
:101BE000C4010E948D06A501B401C4010E94AC216C
:101BF000C4010E943006892B09F476C081E090E090
:101C00002596E2E10C945326E5C04AE652E0B30182
:101C1000C5010E94801D48E652E06C817D81C601AD
:101C20000E94801DA601B501C5010E94AC2181E181
:101C3000F40180AB82E181ABF29682E090E01192F8
:101C4000019680319105D9F7A601B501C5010E9421
:101C50003A214C815D81B501C5010E947806A3013E
:101C6000B501C5010E94780644E652E0B501C50100
:101C70000E94801DA501B501C5010E943A2144E6DC
:101C800052E06C817D81C6010E94801DB601C601B3
:101C90000E948D06A501B601C5010E94AC2140E657
:101CA00052E0B301C6010E94801DB601C6010E9428
:101CB0008D06A501B601C5010E943A2142E652E017
:101CC0006C817D81C6010E94801DA301B601C60101
:101CD0000E947806B601C6010E948D06A501B601D4
:101CE000C6010E943A212DCF69817A81CB010E94E1
:101CF0008422EC81FD8180A98170FB81F81729F095
:101D000069817A81CB010E941F2249815A81B201E7
:101D1000C6010E943A21FF2009F458C0B101C20156
:101D20000E946A064C815D81B101C4010E9478065F
:101D3000A301B101C1010E94780684019101A201B1
:101D4000B6018C819D810E94D00A81019401A60177
:101D5000B201C3010E94D00A82019601A401B1011F
:101D6000C5010E94D00A86019201A101B4018981B6
:101D70009A810E94D00A80E090E02596E2E10C94DE
:101D8000532628C08C819D810E9430068C01C3019E
:101D90000E943006802B912BFB81FF2A8F29892BF3
:101DA00009F02CCFC4010E947206C1010E94720684
:101DB000C2010E947206C6010E94720681E0F4010F
:101DC00080ABBBCFC2010E947206B7CFC2010E9496
:101DD0007206A8CFCF92DF92FF920F931F93CF93FB
:101DE000DF93222349F0C62FDC01FB0131913D93A3
:101DF0003E2F3C1B3217D0F3C22FD0E08B010C0FCB
:101E00001D1F6A01C80FD91FE0E0F0E030E0D801E3
:101E1000FD908D01D6014D916D0150E04F0D511D8A
:101E20004E0F5F1FE52FFF2749933F5F303279F751
:101E3000205E203488F4A22FB0E0EB01CA0FDB1F34
:101E40003881AF01430F511DE52FFF27A80FB91FA0
:101E50004C932F5F203479F7DF91CF911F910F9131
:101E6000FF90DF90CF900895A0E2B0E0EAE3FFE0BA
:101E70000C943F268C016B017A01FC01B09680E244
:101E800011928150E9F7A701B601C8010E94B1156E
:101E9000570180E1A80EB11CA501B601CE01019643
:101EA0000E94B11520E1AE014F5F5F4FB801C8013C
:101EB0000E94EA0E80E1C80ED11CA701B601CE0136
:101EC00001960E94B11520E1AE014F5F5F4FB8014E
:101ED000C8010E94EA0EA501B601CE0101960E943A
:101EE000B11520E2AE014F5F5F4FB801C8010E94FB
:101EF000EA0EA096EAE00C945B26A0E8B0E0E3E8E6
:101F0000FFE00C943C264C01DB017E0181E4E80EED
:101F1000F11C6701CE018F579F4FF7012D9121933F
:101F2000E817F907D9F7A4E07A2E8E010F5B1F4F4F
:101F3000570180E2A80EB11C44EB52E0B501CE017E
:101F400001960E94340F7801D501FE01B19681916E
:101F50008D93E017F107D9F720E0AE014F5F5F4F97
:101F6000B801C8010E94EA0E7A9411F7A2962FAD2B
:101F7000A297822F8C7190E095958795959587957E
:101F8000A3968FAFA397A1969FADA197892F869512
:101F900086952295220F220F207C822BA2968FAF4E
:101FA000A2979370A1969FAFA19744E952E0B80120
:101FB000605E7F4FCE0101960E94340F81E090E079
:101FC0008C0F9D1F805C9F4FD501FE01B196219122
:101FD0002D93E817F907D9F720E0AE014F5F5F4F67
:101FE000B801C8010E94EA0EA3961FAEA397A1965E
:101FF0008FADA19782FB992790F9A2969FAFA297E8
:102000008370A1968FAFA197B801605E7F4F44E9BE
:1020100052E0CE0101960E94340FA2961FAEA29705
:1020200020E0AE014F5F5F4FB801C8010E94EA0E89
:10203000D401C6018096F60121912D93E817F90786
:10204000D9F7C058DF4FEDE00C945826A0E4B0E07B
:10205000ECE2F0E10C9445268E010F5F1F4FFE016C
:10206000B1969E012F5B3F4FDB014D91BD01D80121
:102070004D938D011192E217F307B1F7BE016F5F27
:102080007F4F0E947D0FC05CDF4FE4E00C9461261F
:10209000A0E4B0E0EEE4F0E10C944726DB01FE01A1
:1020A00031969E012F5B3F4F4D914193E217F3070D
:1020B000D9F7BE016F5F7F4F0E947D0FC05CDF4F7D
:1020C000E2E00C946326CF93DF93FB01208120FF95
:1020D00016C0E4E7F2E0EB01DC0120E030E08191A2
:1020E000499190E0821B930B841B9109292F332780
:1020F000217033278D9382E0E439F80781F7DF916F
:10210000CF910895A0E4B0E0E8E8F0E10C94412616
:102110007C018B01BA01A901CE0101960E94340F06
:10212000BE016F5F7F4FC7010E947D0FFE01B19618
:10213000CE018F5B9F4F1192E817F907E1F7F4E7A3
:10214000CF2EF2E0DF2EA701BE016F5F7F4FE0E0F0
:10215000F0E0D6012D916D01DA018D91AD0130E0F5
:102160002E1B3F0B281B3109E32FFF27E170FF27B0
:10217000DB012D93BD01B4E9CB16B2E0DB0649F7D4
:1021800020E0A801BE016F5F7F4FCB010E94EA0EE5
:10219000BE016F5F7F4FC7010E947D0FC05CDF4FA4
:1021A000E8E00C945D26A0E1B0E0E9EDF0E10C94EC
:1021B00037263C012A011901A7010E947806A601D1
:1021C000B201CE0101960E947806AE014F5F5F4FCB
:1021D000B301C3010E943A21A501B101CE010196CC
:1021E0000E947806AE014F5F5F4FB301C3010E94AA
:1021F0003A21A401B801CE0101960E947806AE01F1
:102200004F5F5F4FB301C3010E943A216096E2E144
:102210000C9453260F931F93CF93DF938C01EB0104
:10222000CE010E941F22BE01C8010E946D1EC8017E
:10223000C096BC010E941F22DF91CF911F910F9188
:102240000895A0E0B0E0E7E2F1E10C943F26EC0154
:102250006B015901BA01C6010E94670CA501B601C4
:10226000C6010E94801DB801CE010E94670CA70123
:10227000BE01CE010E94801DA601BE01CE010E94BA
:102280003A21CDB7DEB7EAE00C945B26A2E0B0E0DD
:10229000ECE4F1E10C9437263C012B01BA019A825F
:1022A00089828A8C9B8C2C8C3D8CA9010E9478069B
:1022B000A501B601C2010E947806620180E1C80E44
:1022C000D11CA701B801C6010E947806A601B3017E
:1022D000C3010E94AC21520190E2A90EB11C488DAD
:1022E000598D69817A81C5010E947806A501B201E4
:1022F000C2010E94AC21A201B301C3010E94780671
:10230000A501B601C2010E9478064E8D5F8DB30112
:10231000C3010E94801D48A159A1B301C3010E94BD
:10232000801D7101840128A139A14E8D5F8DB501F9
:10233000C6010E942111A601B201C2010E947806C5
:10234000A301B201C3010E94AC21A401B301C301E6
:102350000E94801DA101B301C3010E94801DEE8C6B
:10236000FF8C28A139A1A101B501C6010E9421114C
:10237000A601B301C3010E947806E8A0F9A02E8D42
:102380003F8DA101B501C6010E942111A601B30133
:10239000C3010E9478062296E2E10C945326A0E045
:1023A000B0E0E5EDF1E10C943D265C016B01EA0142
:1023B0004901B801C6010E948D06A601BE01C601F1
:1023C0000E947806E6016096A701B801CE010E943E
:1023D0007806AE01B501CE010E947806AE0164ED2B
:1023E00072E0CE010E947806AE01BE01CE010E94CD
:1023F0003A21AE01B601C6010E94AC21B701CE015F
:102400000E948D06AE01B401CE010E947806AE0195
:10241000B601C6010E943A21C6010E943006CDB71E
:10242000DEB7ECE00C945926A0E1B0E0EAE1F2E17D
:102430000C943F267C016A01590142EF52E00E9450
:10244000801D40EF52E0B601CE0101960E94801D32
:10245000AE014F5F5F4FB701C7010E94AC214EEE46
:1024600052E0B501CE0101960E94801DAE014F5F82
:102470005F4FB701C7010E94AC214CEE52E0B8019A
:10248000CE0101960E94801DAE014F5F5F4FB701E4
:10249000C7010E943A216096EAE00C945B26A6E60A
:1024A000B0E0E5E5F2E10C94372667969FAF8EAF7A
:1024B000679769967FAF6EAF69971A012901A19658
:1024C0001FAF0EAFA197BC010E940A1169966EADB5
:1024D0007FAD6997CB010E940A1167966EAD7FAD03
:1024E0006797C2010E94E50869966EAD7FAD699756
:1024F000CE0101960E94E5088CE0E82E82E0F82EDD
:102500000EE012E020E132E042E152E0B201C2010D
:102510000E94BD0820E132E042E152E0BE016F5F5F
:102520007F4FCB010E94BD08B201C2010E941F2251
:10253000BE016F5F7F4FCB010E941F229201205D81
:102540003F4F63963FAF2EAF6397C201809665966B
:102550009FAF8EAF6597320190E1690E711CDE016D
:10256000D1964D019E012F5D3F4F5901CE014196FD
:102570006C01D0977D0163960EAD1FAD6397659694
:102580002EAD3FAD6597A301B201C1010E94D310EA
:102590009101205F3F4F6B963FAF2EAF6B97C50108
:1025A0004501DE01D1965D01670140977C0163968C
:1025B0000EAD1FAD639765962EAD3FAD6597A30138
:1025C000B2016B968EAD9FAD6B970E94D310D10177
:1025D00090966D96BFAFAEAF6D9797014701205FA4
:1025E0003F4F790163960EAD1FAD639793016596DA
:1025F0004EAD5FAD6597B2016D968EAD9FAD6D9797
:102600000E94D310C101C0966F969FAF8EAF6F9797
:10261000D401570190967D0165960EAD1FAD65976B
:10262000930163964EAD5FAD6397B2016F968EAD29
:102630009FAD6F970E94D3106F960EAD1FAD6F9731
:102640006D962EAD3FAD6D976B964EAD5FAD6B97B2
:10265000B101C6010E9414126D960EAD1FAD6D97AB
:102660006F962EAD3FAD6F97A1016B966EAD7FADAE
:102670006B97C4010E9414126B960EAD1FAD6B9741
:1026800091016F964EAD5FAD6F976D966EAD7FAD5C
:102690006D97C5010E94141281016B962EAD3FAD5E
:1026A0006B976D964EAD5FAD6D976F966EAD7FADCE
:1026B0006F97C7010E94141294EEE92E92E0F92E52
:1026C00006EE12E028EE32E04AEE52E0B601C60114
:1026D0000E94BD08B601C6010E941F22A1964EAD00
:1026E0005FADA197B201C1010E943D0D892B41F060
:1026F00081E090E0CA59DF4FE2E10C94532631C2E9
:10270000B101C1010E940A1169962EAD3FAD6997D2
:10271000205D3F4F63963FAF2EAF639769968EADB6
:102720009FAD6997809665969FAF8EAF65976996C6
:10273000AEADBFAD69975096A196BFAFAEAFA197B2
:1027400067962EAD3FAD6797205D3F4FA3963FAF95
:102750002EAFA39767968EAD9FAD67978096A5968F
:102760009FAF8EAFA5976796AEADBFAD67975096FA
:10277000A796BFAFAEAFA797D701BF93EF92D8018F
:10278000BF930F93A8EEB2E0BF93AF93AAEEB2E06F
:10279000BF93AF9363963FAD63973F9362968FADC0
:1027A00062978F9365968EAC9FAC6597A196AEAC01
:1027B000BFACA1976996CEACDFAC6997A396EEAC9F
:1027C000FFACA397A5960EAD1FADA597A7962EAD0E
:1027D0003FADA79767964EAD5FAD6797B201CE014B
:1027E0008F5B9F4F0E9446116B96EEACFFAC6B97D0
:1027F00081019E012F5F3F4FAE014F5E5F4FB201DF
:10280000CE018F5B9F4F0E94CF113C01A4EEB2E03E
:10281000BF93AF93A8EEB2E0BF93AF93A6EEB2E042
:10282000BF93AF93AAEEB2E0BF93AF9363963FAD71
:1028300063973F9362968FAD62978F93A1968EAC0C
:102840009FACA1976596AEACBFAC65976996CEACD0
:10285000DFAC6997A396EEACFFACA397A7960EAD3D
:102860001FADA797A5962EAD3FADA59767964EAD28
:102870005FAD6797B201CE018F5B9F4F0E944611FB
:102880006D96EEACFFAC6D9781019E012F5F3F4FBF
:10289000AE014F5D5F4FB201CE018F5B9F4F0E9433
:1028A000CF11682A792AA6EEB2E0BF93AF93A8EEC3
:1028B000B2E0BF93AF93A4EEB2E0BF93AF93AAEEA2
:1028C000B2E0BF93AF9365963FAD65973F93649633
:1028D0008FAD64978F93A1968EAC9FACA1976396B2
:1028E000AEACBFAC63976996CEACDFAC6997A596EA
:1028F000EEACFFACA597A7960EAD1FADA797A3961C
:102900002EAD3FADA39767964EAD5FAD6797B20111
:10291000CE018F5B9F4F0E9446116F96EEACFFACCD
:102920006F9781019E012F5F3F4FAE014F5C5F4F5C
:10293000B201CE018F5B9F4F0E94CF11682A792A86
:10294000A4EEB2E0BF93AF93AAEEB2E0BF93AF9311
:10295000A6EEB2E0BF93AF93A8EEB2E0BF93AF9301
:1029600063963FAD63973F9362968FAD62978F9367
:1029700069968EAC9FAC69976596AEACBFAC659717
:10298000A196CEACDFACA197A396EEACFFACA3971B
:1029900067960EAD1FAD6797A5962EAD3FADA59777
:1029A000A7964EAD5FADA797B201CE018F5B9F4F4B
:1029B0000E9446110FB6F894DEBF0FBECDBFBE0118
:1029C0006F5B7F4FCB010E941F226D96EEACFFAC78
:1029D0006D976B960EAD1FAD6B979E012F5E3F4FAF
:1029E000AE014F5D5F4FB201CE018F5B9F4F0E94E2
:1029F000CF11682A792AA6EEB2E0BF93AF93AAEE70
:102A0000B2E0BF93AF93A4EEB2E0BF93AF93A8EE52
:102A1000B2E0BF93AF9365963FAD65973F936496E1
:102A20008FAD64978F9369968EAC9FAC69976396D0
:102A3000AEACBFAC6397A196CEACDFACA197A59628
:102A4000EEACFFACA59767960EAD1FAD6797A3964A
:102A50002EAD3FADA397A7964EAD5FADA797B20140
:102A6000CE018F5B9F4F0E944611BE016F5B7F4F6F
:102A7000CB010E941F226F96EEACFFAC6F976B9656
:102A80000EAD1FAD6B979E012F5E3F4FAE014F5CA9
:102A90005F4FB201CE018F5B9F4F0E94CF11682A1A
:102AA000792AA8EEB2E0BF93AF93AAEEB2E0BF934B
:102AB000AF93A4EEB2E0BF93AF93A6EEB2E0BF93A4
:102AC000AF93A1963FADA1973F93A0968FADA097EE
:102AD0008F9369968EAC9FAC69976396AEACBFAC92
:102AE00063976596CEACDFAC6597A796EEACFFAC6E
:102AF000A79767960EAD1FAD6797A3962EAD3FAD16
:102B0000A397A5964EAD5FADA597B201CE018F5BA1
:102B10009F4F0E944611BE016F5B7F4FCB010E9409
:102B20001F226F96EEACFFAC6F976D960EAD1FAD8A
:102B30006D979E012F5D3F4FAE014F5C5F4FB2011D
:102B4000CE018F5B9F4F0E94CF110FB6F894DEBF6E
:102B50000FBECDBF86299729CA59DF4FE2E10C94F9
:102B600053262F923F924F925F926F927F928F9255
:102B70009F92AF92BF92CF92DF92EF92FF920F930C
:102B80001F93CF93DF93FC01EA01DB014427552714
:102B90008A012D903D904D905D90688079808A806B
:102BA0009B80289C6001269C5001279CB00CC11C76
:102BB000D51E399C7001299C9001369CB00CC11C1B
:102BC000D21E351F379CC00CD11C351F499CE30E0B
:102BD000F01C011D489C9001469CC00CD11CE21EBB
:102BE000351F389CD00CE11C351F599CF30E001D7D
:102BF000111D579C9001479CD00C211D351F569CE0
:102C0000D00C211D351F589CE20E031E151EF00C22
:102C1000011D151FA082B182C282D3825A012D915B
:102C20003D914D916C817D818E819F81269FE00C2D
:102C3000F11C051FB51E279FF00C011DB51E369F08
:102C4000F00C011D1B1DA51E289F000D111DA51EAA
:102C5000379F000D111DA51E469F000D111DA51EBD
:102C6000BB24299F100DA11CB51E389F100DA11C5F
:102C7000B51E479F100DA11CB51E221A330A440A27
:102C80002D91520A0008661A770A880A990A1108D3
:102C90002024302440245024612471248124912450
:102CA0002018300840085008611871088108910800
:102CB000012400FA269F100DA11CB51E399F332751
:102CC000A00CB11C351F489FA00CB11C351F279FBD
:102CD000A00CB11C351F499F4427B00C311D451F66
:102CE000289FB00C311D451F299F300D411D88279D
:102CF00099272227269CB001279C700D811D369CA8
:102D0000700D811D951F289C800D911D251F379CDE
:102D1000800D911D251F469C800D911D251F299C0E
:102D20002224900D211D251E389C900D211D251E4D
:102D3000479C900D211D251E569C900D211D251E82
:102D4000399C3324200D211C351E489C200D211C4C
:102D5000351E579C200D211C351E499C4424200CF7
:102D6000311C451E589C200C311C451E599C300CB2
:102D7000411C608071806E0C7F1CC01ED11EEA1C3D
:102D8000FB1C031F141F882480F88A94581D052EED
:102D90000594682578258825982528252824382411
:102DA0004824880C661E771EC81ED91EE21EF21C1F
:102DB000031D141DA51EB01C301D401D64827582AC
:102DC000C682D782B701C8012A2D5B2DCC24DD2411
:102DD000760186012D903D904D905D9068847984B8
:102DE0008A849B84269C5001279CB00CC11C369C75
:102DF000B00CC11CD11E289CC00CD11CE11E379CFC
:102E0000C00CD11CE11E469CC00CD11CE11E299CAB
:102E1000D00CE11CF11E389CD00CE11CF11E479C2B
:102E2000D00CE11CF11E569CD00CE11CF11E6A0D69
:102E3000608B7B1D718B8C1D828B9D1D938BA21EC5
:102E4000A48AB51EB58AC31ED41E00080F9244275B
:102E50005527399CE00CF11C051F489CE00CF11C27
:102E6000051F579CE00CF11C051F499CF00C011D2F
:102E7000151F589CF00C011D151F599C000D111DAC
:102E80005A012D913D914D916C857D858E859F8553
:102E9000269FE00CF11C051FB51E279FF00C011D9D
:102EA000B51E369FF00C011D1B1DA51E289F000D91
:102EB000111DA51E379F000D111DA51E469F000D5B
:102EC000111DA51EBB24299F100DA11CB51E389FE6
:102ED000100DA11CB51E479F100DA11CB51E221A76
:102EE000330A440A2D91520A0008661A770A880AA2
:102EF000990A11082024302440245024612471248C
:102F00008124912420183008400850086118710865
:102F100081089108012400FA269F100DA11CB51EFE
:102F2000399F3327A00CB11C351F489FA00CB11C42
:102F3000351F279FA00CB11C351F499F4427B00C9B
:102F4000311D451F289FB00C311D451F299F300D95
:102F5000411D882799272227269CB001279C700DA8
:102F6000811D369C700D811D951F289C800D911D23
:102F7000251F379C800D911D251F469C800D911D9E
:102F8000251F299C2224900D211D251E389C900D63
:102F9000211D251E479C900D211D251E569C900D20
:102FA000211D251E399C3324200D211C351E489CD3
:102FB000200D211C351E579C200D211C351E499CBF
:102FC0004424200C311C451E589C200C311C451EED
:102FD000599C300C411C648875886E0C7F1CC01E87
:102FE000D11EEA1CFB1C031F141F551F0F900194D8
:102FF000E00C0024F01C001D101D882480F88A9429
:10300000581D052E0594682578258825982528259E
:10301000282438244824880C661E771EC81ED91E12
:10302000E21EF21C031D141DA51EB01C301D401D08
:10303000648A758AC68AD78AE08EF18E028F138FD2
:10304000A48EB58E368F478F50972D903D904D9022
:103050005D902D913D914D915D91AD90BD90CD9044
:10306000DD90ED90FD900D911C912A183B084C08C5
:103070005D082E093F09400B510B000868807980DC
:103080008A809B806C817D818E819F81A884B98498
:10309000CA84DB84EC84FD840E851F856A187B0856
:1030A0008C089D086E097F09800B910B1108202464
:1030B00030244024502420253025402550256124EB
:1030C0007124812491246125712581259125201861
:1030D000300840085008200930094009500961189B
:1030E0007108810891086109710981099109AA276C
:1030F000BB2701240F928D01289C6001269C500162
:10310000279CB00CC11CDA1E399C7001299CE0017F
:10311000369CB00CC11CDC1EDA1F379CC00CD11CC5
:10312000DA1F499CED0EF01C011D489CE001469CF5
:10313000C00CD11CEC1EDA1F389CD00CE11CDA1F2D
:10314000599CFD0E001D111D579CE001479CD00CA1
:10315000C11DDA1F569CD00CC11DDA1F589CEC0E05
:103160000D1E1A1EF00C011D1A1F221A330A440AE2
:10317000550A0008661A770A880A990A1108202455
:103180003024402450246124712481249124201867
:10319000300840085008611871088108910801241E
:1031A00000FA289FE001269FE00CF11C0C1FDA1F9B
:1031B000279FF00C011DDA1F399F1D0FA01DB11DA7
:1031C000299FE001369FF00C011D1C1F2227D21FF2
:1031D000379F000D111DD21F499FAD0FB01D222733
:1031E000211D489FE001469F000D111DAC1F0024CA
:1031F000D01D389F100DA11D3327D31F599FBD0F20
:10320000201D9927911D579FE001479F100DC11D5B
:10321000D31F569F100DC11DD31F589FAC0F0D1EFD
:10322000131EB00D211D931F289CB001269CA001E8
:10323000279C500D611D731F399C802D022C212C61
:10324000099CE001369C500D611D7C1FD31F379CEB
:10325000600D711DD31F499C8D0F201C311D489C92
:10326000E001469C600D711D8C1F0024D01D389C10
:10327000700D811D3324D31D599C2D0E301D9924B2
:10328000911C579CE001479C700DC11DD31D569C9D
:10329000700DC11DD31D589C8C0F0D1E131C200CCE
:1032A000311D931C25013601AE0CBF1CC01ED11E62
:1032B000EA1EFB1E021F191F002400F80A94301C8E
:1032C000132C159440255025602570258025202439
:1032D00030259024000CA41EB51EC61ED71EE81E65
:1032E000F21C031F191DA31DB11D211D911D392F96
:1032F000408151816281738184819581868097802C
:103300000F900094102C15944024502460247024B5
:10331000A024B024C024D024E024F02400251025CB
:10332000A025B02520253025C02DCC0F441D551DCE
:10333000661D771D8A1D9B1D8C1C9D1CCC27CC1FD8
:1033400020883188420D531D40875187A101228872
:103350003388621D731D62877387B10124883588A5
:10336000821D931D84879587C10126883788821C1A
:10337000931C8686978641012224221CC6954E1DE9
:103380005F1D601F711F8A1F9B1F821E931E0C1ED4
:103390001C1E408C518C628C738CA48CB58CC68C9A
:1033A000D78C2694441D551D661D771D8A1D9B1DB7
:1033B0008C1C9D1C021C121C408B518B628B738BCE
:1033C000848B958B868A978A400C511C611C711CDA
:1033D000A11CB11CC11CD11C408E518E628E738EFB
:1033E000A48EB58EC68ED78E1124DF91CF911F91FA
:1033F0000F91FF90EF90DF90CF90BF90AF909F9094
:103400008F907F906F905F904F903F902F90089596
:103410002F923F924F925F926F927F928F929F92E4
:10342000AF92BF92CF92DF92EF92FF920F931F93D2
:10343000CF93DF93FC01EB01288039804A805B80C9
:103440006C807D808E809F80AA27BB27239C5001A3
:103450006D01249CB00CC11C7D01259CC00CD11CAD
:10346000349CC00CD11CEA1E269CD00CE11C359C5F
:10347000D00CE11CFA1E8D01279CE00CF11C0A1FE8
:10348000369CE00CF11C0A1F459CE00CF11C0A1F45
:10349000289CF00C011D1A1F379CF00C011D1A1FEF
:1034A000469CF00C011D1A1F9D01299C000D111D49
:1034B0002A1F389C000D111D2A1F479C000D111D4D
:1034C0002A1F569C000D111D2A1FAA1CBB1CCC1CB8
:1034D000DD1CEE1CFF1C001F990B229C0082212C7E
:1034E000339CA001449CB001559CA20CA182B41E47
:1034F000B282C51EC382D61ED482E71EE582F01CAE
:10350000F682011D07839A0B399C100D211D3A1F6D
:10351000489C100D211D3A1F579C100D211D3A1F6C
:10352000AD01499C200D311D4A1F589C200D311DB5
:103530004A1F679C200D311D4A1F599C300D411DAB
:103540005A1F689C300D411D5A1FBD01699C400DDA
:10355000511D6A1F789C400D511D6A1F799C500DAA
:10356000611D7A1F8827899C600D711D8A1F111F9C
:10357000221F331F441F551F661F771F881F669C1D
:103580009195090E1A1E5001779C6001889C70016C
:10359000999C10011A0D2B1D3C1D4D1D5E1D6F1DAC
:1035A000721D831D288439844A845B846C847D84E5
:1035B0008E849F84239C50016D01249CB00CC11CFF
:1035C0007D01259CC00CD11C349CC00CD11CEA1E72
:1035D000269CD00CE11C359CD00CE11CFA1E0A2F55
:1035E000279CE00CF11C0A1F369CE00CF11C0A1F02
:1035F000459CE00CF11C0A1F289CF00C011DAB1F20
:10360000379CF00C011DAB1F469CF00C011DAB1F3D
:10361000299C000DA11DBB0B389C000DA11DB040C5
:10362000479C000DA11DB040569C000DA11DB0404F
:10363000B195AA0CBB1CCC1CDD1CEE1CFF1C001F92
:10364000990BA20EB31EC41ED51EE61EF71E081F40
:103650009040229C9001339CA001449CB001559C59
:10366000210F208BA31EA18AB41EB28AC51EC38A55
:10367000D61ED48AE71EE58AF01CF68A011D078B48
:10368000904011273327399CA00DB11D311F489C54
:10369000A00DB11D311F579CA00DB11D311F412F31
:1036A000499CB00D311D411F589CB00D311D411F6B
:1036B000679CB00D311D411F512F599C300D411D8C
:1036C000511F689C300D411D511F612F699C400D99
:1036D000511D611F789C400D511D611F712F799CF8
:1036E000500D611D711F8827899C600D711D811F00
:1036F000AA1FBB1F331F441F551F661F771F881F3C
:10370000669C9195090E111E5001779C6001889C62
:103710007001999CAA0DA08FBB1DB18F3C1D328FEB
:103720004D1D438F5E1D548F6F1D658F701D768FED
:10373000811D878FA880B980CA80DB80EC80FD80E6
:103740000E811F812A183B084C085D086E087F080F
:10375000800A910ABB27AA0B2A263A264A265A260D
:103760006A267A268A269A26A1952A0E3B1E4B1E89
:103770005B1E6B1E7B1E8B1E9B1EAA27239C50016B
:103780006D01249CB00CC11C7D01259CC00CD11C7A
:10379000349CC00CD11CEA1E269CD00CE11C359C2C
:1037A000D00CE11CFA1E8D01279CE00CF11C0A1FB5
:1037B000369CE00CF11C0A1F459CE00CF11C0A1F12
:1037C000289CF00C011D1A1F379CF00C011D1A1FBC
:1037D000469CF00C011D1A1F9D01299C000D111D16
:1037E0002A1F389C000D111D2A1F479C000D111D1A
:1037F0002A1F569C000D111D2A1FAA1CBB1CCC1C85
:10380000DD1CEE1CFF1C001F990B229CE001339C69
:10381000A001449CB001559CAD0EB41EC51ED61E21
:10382000E71EF01C011D9A0B399C100D211D3A1F3B
:10383000489C100D211D3A1F579C100D211D3A1F49
:10384000AD01499C200D311D4A1F589C200D311D92
:103850004A1F679C200D311D4A1F599C300D411D88
:103860005A1F689C300D411D5A1FBD01699C400DB7
:10387000511D6A1F789C400D511D6A1F799C500D87
:10388000611D7A1F8827899C600D711D8A1F111F79
:10389000221F331F441F551F661F771F881F669CFA
:1038A0009195090E1A1E1001779C2001889C300109
:1038B000999C120D231D341D451D561D671D701D3D
:1038C000811D20883188428853886488758886885D
:1038D0009788C219A308B408C508D608E708F808ED
:1038E00009090008D081DC1BD087D181DA09D18792
:1038F000D281DB09D287D381DC09D387D481DD096A
:10390000D487D581DE09D587D681DF09D687D781CF
:10391000D00BD787210A320A430A540A650A760A6D
:10392000870A980AAA0BA08CB18CC28CD38CE48C29
:10393000F58C068D178D000C2A1C3B1C4C1C5D1C45
:103940006E1C7F1C801E911E208A318A428A538AF7
:10395000648A758A868A978A2227A21FBA2FB5950C
:10396000AA0EBB1ECB1EDB1EEB1EFB1E0B1F1B1F5E
:10397000A08EB18EC28ED38EE48EF58E068F178FF9
:103980001124DF91CF911F910F91FF90EF90DF9065
:10399000CF90BF90AF909F908F907F906F905F90EF
:1039A0004F903F902F9008952227DB01FC01CE011C
:1039B000EB011F963C911F9760966F85660F121E54
:1039C000360F121E330F111C36955D917727510D5E
:1039D000721F6991660F721F560F721F51935D918E
:1039E0006991660F221F570F7727271F560F271F32
:1039F00051935D916991660F771F520F2227721FB5
:103A0000560F721F51935D916991660F221F570FD8
:103A10007727271F560F271F51935D916991660FD6
:103A2000771F520F2227721F560F721F51935D91FD
:103A30006991660F221F570F7727271F560F271FE1
:103A400051935D916991660F771F520F2227721F64
:103A5000560F721F51935D916991660F221F570F88
:103A60007727271F560F271F51935D916991660F86
:103A7000771F520F2227721F560F721F51935D91AD
:103A80006991660F221F570F7727271F560F271F91
:103A900051935D916991660F771F520F2227721F14
:103AA000560F721F51935D916991660F221F570F38
:103AB0007727271F560F271F51935D916991660F36
:103AC000771F520F2227721F560F721F51935D915D
:103AD0006991660F221F570F7727271F560F271F41
:103AE00051935D916991660F771F520F2227721FC4
:103AF000560F721F5193370F3083EC011124089534
:103B00002F923F926F927F928F929F92AF92BF922D
:103B1000CF92DF92EF92FF920F931F93CF93DF9399
:103B2000FC01EA01DB01772788279927662477249F
:103B300088249924AA24BB24CC24DD24EE24FF2449
:103B40000027112722273327588169814D91459FEE
:103B500010014D91459F300C811D4D91459F800D69
:103B6000911D4D91459F900D611C4D91459F600C9D
:103B7000711C4D91459F700C811C4D91459F800C8F
:103B8000911C4D91459F900CA11C4D91459FA00CFF
:103B9000B11C4D91459FB00CC11C4D91459FC00C6F
:103BA000D11C4D91459FD00CE11C4D91459FE00CDF
:103BB000F11C4D91459FF00C011D4D91459F000D4D
:103BC000111D4C91459F100D211D12974D91469F3F
:103BD000000D131E512D4D91469F100D211D331FB9
:103BE0004C91469F150F201D311D1F97110F221F4D
:103BF000331F16954D91469F220E301C212D271FF5
:103C00004D91469F330E801D312D371F4D91469F9C
:103C1000820F901D212D271F4D91469F930F601CF1
:103C2000312D371F4D91469F620E701C212D271F8D
:103C30004D91469F730E801C312D371F4D91469F2D
:103C4000820E901C212D271F4D91469F930EA01C84
:103C5000312D371F4D91469FA20EB01C212D271FDD
:103C60004D91469FB30EC01C312D371F4D91469F7D
:103C7000C20ED01C212D271F4D91469FD30EE01C54
:103C8000312D371F4C91469FE20EF01C071F171F66
:103C9000F30E011D171F2082318282839383648279
:103CA000758286829782A086B186C286D386E48694
:103CB000F586068717871124DF91CF911F910F9109
:103CC000FF90EF90DF90CF90BF90AF909F908F903C
:103CD0007F906F903F902F9008956F927F928F9278
:103CE0009F92AF92BF92CF92DF92EF92FF920F938B
:103CF0001F933E01FB01EC01A080B088AB0CB180AA
:103D0000C188BC1CC280D288CD1CD380E388DE1C55
:103D1000E480F488EF1CF5800589F01E0681168981
:103D2000011F17812789121F2085308D231F3185A0
:103D3000418D341F4285528D451F5385638D561F1B
:103D40006485748D671F7585858D781F8685968D32
:103D5000891F9785978C991D8824881C990F881C2A
:103D60009695A80CB11CC11CD11CE11CF11C011DB5
:103D7000111D211D311D411D511D611D711D811D13
:103D8000911D9088A88AA0809A18A188B98AB180CC
:103D9000AB08B288CA8AC280BC08C388DB8AD380D9
:103DA000CD08D488EC8AE480DE08E588FD8AF580B9
:103DB000EF08F6880E8B0681F00A07891F8B1781A2
:103DC000010B108D288F2085120B218D398F3185A5
:103DD000230B328D4A8F4285340B438D5B8F538585
:103DE000450B548D6C8F6485560B658D7D8F758565
:103DF000670B768D8E8F8685780B878D9F8F978545
:103E0000890B8824881C880C9818A108B108C1085F
:103E1000D108E108F1080109110921093109410915
:103E200051096109710981098824881C880C981836
:103E30009882A982BA82CB82DC82ED82FE820F83D5
:103E4000188729873A874B875C876D877E878F879E
:103E5000A0A0B0A8AB0CB1A0C1A8BC1CC2A0D2A8A5
:103E6000CD1CD3A0E3A8DE1CE4A0F4A8EF1CF5A0B1
:103E700005A9F01E06A116A9011F17A127A9121F47
:103E800020A530AD231F31A541AD341F42A552AD51
:103E9000451F53A563AD561F64A574AD671F75A577
:103EA00085AD781F86A596AD891F97A597AC991DFE
:103EB0008824881C990F881C9695A80CB11CC11CDD
:103EC000D11CE11CF11C011D111D211D311D411DC5
:103ED000511D611D711D811D911D9F938F937F93B6
:103EE0006F935F934F933F932F931F930F93FF9283
:103EF000EF92DF92CF92BF92AF9290A0A0A89A18B3
:103F0000A1A0B1A8AB08B2A0C2A8BC08C3A0D3A806
:103F1000CD08D4A0E4A8DE08E5A0F5A8EF08F6A037
:103F200006A9F00A07A117A9010B10A520AD120BD5
:103F300021A531AD230B32A542AD340B43A553ADC2
:103F4000450B54A564AD560B65A575AD670B76A5FD
:103F500086AD780B87A597AD890B8824881C880CC3
:103F60009818A108B108C108D108E108F1080109B1
:103F700011092109310941095109610971098109B1
:103F80008824881C880C981898AAA9AABAAACBAA2F
:103F9000DCAAEDAAFEAA0FAB18AF29AF3AAF4BAF20
:103FA0005CAF6DAF7EAF8FAF8888980C8988A81CF6
:103FB0008A88B81C8B88C81C8C88D81C8D88E81C03
:103FC0008E88F81C8F88081D888C181D898C281DE8
:103FD0008A8C381D8B8C481D8C8C581D8D8C681DCF
:103FE0008E8C781D8F8C881D8824881C880F881CD7
:103FF0008695980CA11CB11CC11CD11CE11CF11CA4
:10400000011D111D211D311D411D511D611D711D00
:10401000811D88A898AA9888891899A8A9AAA9880A
:104020009A08AAA8BAAABA88AB08BBA8CBAACB8818
:10403000BC08CCA8DCAADC88CD08DDA8EDAAED88F8
:10404000DE08EEA8FEAAFE88EF08FFA80FAB0F89D6
:10405000F00A08AD18AF188D010B19AD29AF298DE5
:10406000120B2AAD3AAF3A8D230B3BAD4BAF4B8DC4
:10407000340B4CAD5CAF5C8D450B5DAD6DAF6D8DA4
:10408000560B6EAD7EAF7E8D670B7FAD8FAF8F8D84
:10409000780B8827881F880F881A9108A108B10813
:1040A000C108D108E108F108010911092109310904
:1040B00041095109610971098827881F880F881AE9
:1040C00088A299A2AAA2BBA2CCA2DDA2EEA2FFA2C4
:1040D00008A719A72AA73BA74CA75DA76EA77FA78C
:1040E000A880BF90B88AAB0CB980CF90C98ABC1C9D
:1040F000CA80DF90DA8ACD1CDB80EF90EB8ADE1C71
:10410000EC80FF90FC8AEF1CFD800F910D8BF01E60
:104110000E811F911E8B011F1F812F912F8B121F4C
:1041200028853F91388F231F39854F91498F341F40
:104130004A855F915A8F451F5B856F916B8F561F24
:104140006C857F917C8F671F7D858F918D8F781F08
:104150008E859F919E8F891F9F859F909F8E991D11
:104160008824881C990F881C9695A80CB11CC11C2A
:10417000D11CE11CF11C011D111D211D311D411D12
:10418000511D611D711D811D911D9880A882A888F7
:104190009A18A980B982B988AB08BA80CA82CA883D
:1041A000BC08CB80DB82DB88CD08DC80EC82EC882D
:1041B000DE08ED80FD82FD88EF08FE800E830E890B
:1041C000F00A0F811F831F89010B18852887288D0E
:1041D000120B29853987398D230B3A854A874A8DF9
:1041E000340B4B855B875B8D450B5C856C876C8DD9
:1041F000560B6D857D877D8D670B7E858E878E8DB9
:10420000780B8F859F879F8D890B8824881C880C4D
:104210009818A108B108C108D108E108F1080109FE
:1042200011092109310941095109610971098109FE
:104230008824881C880C9818988AA98ABA8ACB8AFC
:10424000DC8AED8AFE8A0F8B188F298F3A8F4B8F6D
:104250005C8F6D8F7E8F8F8FE3011F910F91FF9089
:10426000EF90DF90CF90BF90AF909F908F907F9016
:104270006F9008957F928F929F92AF92BF92CF924C
:10428000DF92EF92FF920F931F93DB01FC01CE01AF
:10429000EA017D908990780C8D909990891C9D9071
:1042A000A9909A1CAD90B990AB1CBD90C990BC1C54
:1042B000CD90D990CD1CDD90E990DE1CED90F99069
:1042C000EF1CFD900991F01E0D911991011F1D9198
:1042D0002991121F2D913991231F3D914991341F2E
:1042E0004D915991451F5D916991561F6D9179913D
:1042F000671F7727771F660F771F6695770E811CDC
:10430000911CA11CB11CC11CD11CE11CF11C011D84
:10431000111D211D311D411D511D611D7192819283
:104320009192A192B192C192D192E192F1920193B4
:10433000119321933193419351936083EC011124A4
:104340001F910F91FF90EF90DF90CF90BF90AF90B3
:104350009F908F907F9008957F928F929F92AF92BF
:10436000BF92CF92DF92EF92FF920F931F93DB01E8
:10437000FC01CE01EA017D90899078188D9099908A
:1043800089089D90A9909A08AD90B990AB08BD900E
:10439000C990BC08CD90D990CD08DD90E990DE0899
:1043A000ED90F990EF08FD900991F00A0D911991A7
:1043B000010B1D912991120B2D913991230B3D91E8
:1043C0004991340B4D915991450B5D916991560B73
:1043D0006D917991670B7727771F770F771A81088F
:1043E0009108A108B108C108D108E108F108010944
:1043F0001109210931094109510961097727771FFD
:10440000770F771A719281929192A192B192C19293
:10441000D192E192F19201931193219331934193BF
:1044200051936083EC011F910F91FF90EF90DF900B
:10443000CF90BF90AF909F908F907F9008959F9264
:10444000AF92BF92CF92DF92EF92FF920F931F93A2
:10445000DB01FC01AA24BB246501750185019501DE
:10446000A501B501C5019D90A9189D90B9089D9021
:10447000C9089D90D9089D90E9089D90F9089D90E4
:1044800009099D9019099D9029099D9039099D90D0
:1044900049099D9059099D9069099D9079099D90C0
:1044A00089099D909909111C110CA1181124B108BA
:1044B000C108D108E108F1080109110921093109F0
:1044C000410951096109710981099109111C110CF6
:1044D000A1181124A192B192C192D192E192F192CC
:1044E000019311932193319341935193619371936C
:1044F000819390831F910F91FF90EF90DF90CF9069
:10450000BF90AF909F900895DB01FC0133271F9669
:104510002C911F97220F331F26955D91530F4D91BC
:10452000411D41834D91411D42834D91411D438366
:104530004D91411D44834D91411D45834D91411D38
:1045400046834D91411D47834D91411D40874D91BB
:10455000411D41874D91411D42874D91411D43872A
:104560004D91411D44874D91411D45874D91411D00
:104570004687211D220F511D2695278750830895B8
:104580001092C50089E18093C40088E18093C10046
:1045900008959091520391110BC01092C50099E1BA
:1045A0009093C40098E19093C10091E090935203DE
:1045B0009091C00095FFFCCF8093C6000895FC0148
:1045C00020812223C9F0319649E138E191E08091C0
:1045D0005203811108C01092C5004093C40030936B
:1045E000C100909352038091C00085FFFCCF2093BF
:1045F000C60021912111EBCF0895A4E0B0E0E3E0E3
:10460000F3E20C943F266115710511F18C015C01F8
:10461000A60EB71ECE0101967C018EE2C82E83E065
:10462000D82EF80181918F011F928F93DF92CF9244
:10463000FF92EF920E94EB26C7010E94DF220F90AB
:104640000F900F900F900F900F900A151B0549F7D0
:104650002496EAE00C945B26ACE1B0E0E2E3F3E2FE
:104660000C943726922E832E742E652E562E472EAE
:10467000382E292E188EA0E00E94832609F44DC002
:104680009E01285E3F4F3C8F2B8F86E190E09A8FF2
:10469000898F9AE0A92EB12CC12CD12CE12CF12CC0
:1046A00000E010E0292D382D472D562D652D742D55
:1046B000832D922D0E94D825205DEB8DFC8D2293B9
:1046C000FC8FEB8F298D3A8D215031093A8F298F3C
:1046D000292D382D472D562D652D742D832D922D86
:1046E0000E94DA25922E832E742E652E562E472E8A
:1046F000382E292EA0E00E94832659F6898D9A8DA6
:104700000196E1E0F0E0EC0FFD1F8E0F9F1F0E946D
:10471000DF226C96E2E10C94532684E393E00E943E
:10472000DF2287E190E0EDCFA0E0B0E0EAE9F3E23C
:104730000C943B264B013A01E9010E94DF228EE4F2
:1047400093E00E94DF228FEF88169806B1F086E38F
:1047500093E00E94DF22A12CB12CC12CD12C760138
:10476000940140E050E060E070E080E090E00E9462
:104770002C2388E393E00E94DF222197209729F1E0
:104780004301612C712C8FEF681A780AF40120859F
:1047900088E0880E911C3185428553856485758536
:1047A00086859785A080B180C280D380E480F58023
:1047B000068117810E947A260E942C238FE493E0C1
:1047C0000E94DF226C167D06F0F287E493E00E94DF
:1047D000DF22CDB7DEB7EEE00C9457268F929F9282
:1047E000AF92BF92CF92DF92EF92FF92CF93DF937F
:1047F0004B01EA010E94DF228EE493E00E94DF2257
:104800008FEF8816980689F086E393E00E94DF22F6
:10481000940140E050E060E070E080E090E00E94B1
:104820002C2388E393E00E94DF229E0140E050E0C9
:1048300060E070E080E090E00E942C238BE393E046
:104840000E94DF22DF91CF91FF90EF90DF90CF9019
:10485000BF90AF909F908F90089584E00E94C922EE
:10486000FFCFEC0189E493E00E94DF22CE010E9499
:10487000DF2287E493E00E94DF220E942D248FEF45
:104880009FEF0E941E2AA1EBB0E0E9E4F4E20C9451
:104890003726C455DF4F1882CC5AD040512C412CBA
:1048A000C255DF4F1882CE5AD040C155DF4F188213
:1048B000CF5AD040C055DF4F1882C05BD040CF5494
:1048C000DF4F1882C15BD040212C312C9E012E5726
:1048D0003F4F3901852D942D0E94E0268E010E5BFD
:1048E0001F4F06C0F80181938F01E615F70571F09F
:1048F0000E94DC26907897FFF5CF01979F6F019675
:10490000F80181938F01E615F70591F70E94DC26E7
:10491000907897FDF1C0C655DF4F8883CA5AD040C2
:10492000BE016E5B7F4FC3010E94D7009E012E5BCC
:104930003F4F49015301CC24C394D12CE12CF12CDD
:1049400000E010E020E030E0AE0146555F4FBE01D0
:104950006E557F4FCE0101960E9416017F926F9295
:10496000C755DF4F8881C95AD0408F93C855DF4F54
:104970008881C85AD0408F93C955DF4F8881C75A64
:10498000D0408F93CA55DF4F8881C65AD0408F934D
:10499000CB55DF4F8881C55AD0408F93CC55DF4F20
:1049A0008881C45AD0408F93CD55DF4F8881C35A38
:1049B000D0408F93CE55DF4F8881C25AD0408F931D
:1049C000CE0101967C0101E020E030E040E050E0C3
:1049D00060E070E087559F4F0E942802C355DF4F6B
:1049E0008883CD5AD0400FB6F894DEBF0FBECDBF3E
:1049F000882309F485C0C455DF4F5882CC5AD04073
:104A000087E493E00E94DF2284EF92E00E94DF229D
:104A100087E493E00E94DF2261E070E0CE018455DC
:104A20009F4F0E94FD228FEF92E00E94DF2287E4D9
:104A300093E00E94DF2260E270E0C4010E94FD2248
:104A400087E493E00E94DF2260E270E0C401809678
:104A50000E94FD2287E493E00E94DF2261E070E083
:104A6000CE0186559F4F0E94FD2287E493E00E946D
:104A7000DF2287E493E00E94DF2287E493E00E9434
:104A8000DF2261E070E0CE0183559F4F0E94FD223E
:104A900061E070E0CE0183559F4F0E94FD2261E0EE
:104AA00070E0CE0183559F4F0E94FD2261E070E0CF
:104AB000CE0183559F4F0E94FD2261E070E0CE0140
:104AC00083559F4F0E94FD2261E070E0CE01835527
:104AD0009F4F0E94FD2287E493E00E94DF2287E43B
:104AE00093E00E94DF220E942D2480E090E0CF54CA
:104AF000DF4FE2E10C94532601979F6F01960BCF95
:104B0000252D342DC255DF4F4881CE5AD040C15596
:104B1000DF4F5881CF5AD040C055DF4F6881C05B0E
:104B2000D040CF54DF4F7881C15BD040C101A1E0BC
:104B30000E946E26522E432EC255DF4F4883CE5A16
:104B4000D040C155DF4F5883CF5AD040C055DF4FBA
:104B50006883C05BD040CF54DF4F7883C15BD040C7
:104B60001C01AAE00E94832609F0B4CE87E493E0FA
:104B70000E94DF2286E093E00E94DF2287E493E038
:104B80000E94DF228AE0C555DF4F8883CB5AD04090
:104B900061E070E0CE0185559F4F0E94FD228AE1C1
:104BA00093E00E94DF2287E493E00E94DF2261CF3E
:104BB000689401C0E8948F929F92CF93DF930E94F4
:104BC000E625DF91CF919F908F90089588249924B6
:104BD000F401E401B0E49F93AA279A158B049C0486
:104BE000ED05FE05CF05D007A10798F4AD2FDC2F0A
:104BF000CF2FFE2FE92D982C892E982F872F762FD7
:104C0000652F542F432F322F2227B85031F7BF91F1
:104C100027C01B2EBF91BB27220F331F441F551FD8
:104C2000661F771F881F991F881C991CEE1FFF1F86
:104C3000CC1FDD1FAA1FBB1F8A149B04EC05FD05BA
:104C4000CE05DF05A007B10748F08A189B08EC09DC
:104C5000FD09CE09DF09A00BB10B21601A94E1F622
:104C60002EF49401AF01BE01CD01000C08952F92E6
:104C70003F924F925F926F927F928F929F92AF92EC
:104C8000BF92CF92DF92EF92FF920F931F93CF9339
:104C9000DF93CDB7DEB7CA1BDB0B0FB6F894DEBFD0
:104CA0000FBECDBF19942A88398848885F846E84E6
:104CB0007D848C849B84AA84B984C884DF80EE8040
:104CC000FD800C811B81AA81B981CE0FD11D0FB649
:104CD000F894DEBF0FBECDBFED0108950024A7FDFF
:104CE00000942A0F301D401D501D601D701D801D39
:104CF000901D08952A193B094C095D096E097F0929
:104D0000800B910B08950024A7FD00942A1730050D
:104D100040055005600570058005900508958F9247
:104D20009F92AF92BF92CF92DF92EF92FF92CF937A
:104D3000DF93EC01688179818A819B81611571051E
:104D40008105910521F464E279ED8BE597E02DE191
:104D500033EF41E050E00E94BB2949015A019B0119
:104D6000AC01A7EAB1E40E94DA296B017C01ACEE48
:104D7000B4EFA50194010E94E829C60ED71EE81ED3
:104D8000F91EF7FE06C081E0C81AD108E10880E8E4
:104D9000F80AC882D982EA82FB82C6019F77DF9136
:104DA000CF91FF90EF90DF90CF90BF90AF909F900A
:104DB0008F9008950C948F2680E092E00C948F26BB
:104DC000A0E0B0E08093000290930102A093020261
:104DD000B093030208950F931F93CF93DF93CDB742
:104DE000DEB72E970FB6F894DEBF0FBECDBF0E898B
:104DF0001F8986E08C831A8309838FEF9FE79E8348
:104E00008D83AE01465E5F4F688D798DCE01019630
:104E10000E941A27EF81F885E00FF11F10822E966D
:104E20000FB6F894DEBF0FBECDBFDF91CF911F91BB
:104E30000F9108952F923F924F925F926F927F92BF
:104E40008F929F92AF92BF92CF92DF92EF92FF929A
:104E50000F931F93CF93DF93CDB7DEB72C970FB689
:104E6000F894DEBF0FBECDBF7C016B018A01FC014F
:104E700017821682838181FFBDC1CE0101964C014C
:104E8000F7019381F60193FD859193FF81916F0165
:104E9000882309F4ABC1853239F493FD859193FFE2
:104EA00081916F01853229F4B70190E00E942B298E
:104EB000E7CF512C312C20E02032A0F48B3269F066
:104EC00030F4803259F0833269F420612CC08D3285
:104ED00039F0803339F4216026C02260246023C079
:104EE000286021C027FD27C030ED380F3A3078F414
:104EF00026FF06C0FAE05F9E300D1124532E13C02A
:104F00008AE0389E300D1124332E20620CC08E3280
:104F100021F426FD6BC1206406C08C3611F4206894
:104F200002C0883641F4F60193FD859193FF81918B
:104F30006F018111C1CF982F9F7D9554933028F434
:104F40000C5F1F4FFFE3F9830DC0833631F08337C9
:104F500071F0833509F05BC022C0F801808189833C
:104F60000E5F1F4F44244394512C540115C0380147
:104F7000F2E06F0E711CF801A080B18026FF03C023
:104F8000652D70E002C06FEF7FEFC5012C870E9496
:104F900020292C0183012C852F77222E17C0380160
:104FA000F2E06F0E711CF801A080B18026FF03C0F3
:104FB000652D70E002C06FEF7FEFC5012C870E9466
:104FC00015292C012C852068222E830123FC1BC06F
:104FD000832D90E048165906B0F4B70180E290E0C6
:104FE0000E942B293A94F4CFF50127FC859127FEE6
:104FF00081915F01B70190E00E942B2931103A9412
:10500000F1E04F1A51084114510471F7E5C084369C
:1050100011F0893639F5F80127FF07C060817181E9
:10502000828193810C5F1F4F08C060817181882746
:1050300077FD8095982F0E5F1F4F2F76B22E97FF2A
:1050400009C090958095709561957F4F8F4F9F4FC8
:105050002068B22E2AE030E0A4010E945D29A82E2B
:10506000A81844C0853729F42F7EB22E2AE030E0FC
:1050700025C0F22FF97FBF2E8F36C1F018F4883586
:1050800079F0B4C0803719F0883721F0AFC02F2FE6
:105090002061B22EB4FE0DC08B2D8460B82E09C0E5
:1050A00024FF0AC09F2F9660B92E06C028E030E08A
:1050B00005C020E130E002C020E132E0F801B7FE97
:1050C00007C060817181828193810C5F1F4F06C090
:1050D0006081718180E090E00E5F1F4FA4010E940B
:1050E0005D29A82EA818FB2DFF77BF2EB6FE0BC09A
:1050F0002B2D2E7FA51450F4B4FE0AC0B2FC08C0BC
:105100002B2D2E7E05C07A2C2B2D03C07A2C01C0AE
:10511000752C24FF0DC0FE01EA0DF11D8081803346
:1051200011F4297E09C022FF06C07394739404C051
:10513000822F867809F0739423FD13C020FF06C0E8
:105140005A2C731418F4530C5718732C731468F4F6
:10515000B70180E290E02C870E942B2973942C8564
:10516000F5CF731410F4371801C0312C24FF12C08E
:10517000B70180E390E02C870E942B292C8522FF29
:1051800017C021FF03C088E590E002C088E790E0E7
:10519000B7010CC0822F867859F021FD02C080E251
:1051A00001C08BE227FD8DE2B70190E00E942B2920
:1051B000A51438F4B70180E390E00E942B295A949B
:1051C000F7CFAA94F401EA0DF11D8081B70190E0B8
:1051D0000E942B29A110F5CF332009F451CEB7013D
:1051E00080E290E00E942B293A94F6CFF701868165
:1051F000978102C08FEF9FEF2C960FB6F894DEBF19
:105200000FBECDBFDF91CF911F910F91FF90EF9017
:10521000DF90CF90BF90AF909F908F907F906F90D6
:105220005F904F903F902F900895FC010590615042
:1052300070400110D8F7809590958E0F9F1F0895AC
:10524000FC016150704001900110D8F78095909555
:105250008E0F9F1F08950F931F93CF93DF93182FE7
:10526000092FEB018B8181FD03C08FEF9FEF20C0E1
:1052700082FF10C04E815F812C813D814217530710
:105280007CF4E881F9819F012F5F3F4F39832883A8
:10529000108306C0E885F985812F1995892B29F798
:1052A0002E813F812F5F3F4F3F832E83812F902F91
:1052B000DF91CF911F910F910895FA01AA2728300D
:1052C00051F1203181F1E8946F936E7F6E5F7F4FD3
:1052D0008F4F9F4FAF4FB1E03ED0B4E03CD0670F4F
:1052E000781F891F9A1FA11D680F791F8A1F911DA2
:1052F000A11D6A0F711D811D911DA11D20D009F4F2
:1053000068943F912AE0269F11243019305D319333
:10531000DEF6CF010895462F4770405D4193B3E01C
:105320000FD0C9F7F6CF462F4F70405D4A3318F0C3
:10533000495D31FD4052419302D0A9F7EACFB4E074
:10534000A6959795879577956795BA95C9F700972C
:105350006105710508959B01AC010A2E06945795CD
:10536000479537952795BA95C9F7620F731F841F24
:10537000951FA01D0895052E97FB1EF400940E9412
:10538000D22957FD07D00E94ED2907FC03D04EF427
:105390000C94D22950954095309521953F4F4F4F11
:1053A0005F4F089590958095709561957F4F8F4FD1
:1053B0009F4F08950E940F2AA59F900DB49F900DB6
:1053C000A49F800D911D11240895B7FF0C94DA2934
:1053D0000E94DA29821B930B0895A1E21A2EAA1BC0
:1053E000BB1BFD010DC0AA1FBB1FEE1FFF1FA21795
:1053F000B307E407F50720F0A21BB30BE40BF50B92
:10540000661F771F881F991F1A9469F7609570951A
:10541000809590959B01AC01BD01CF010895A29F9D
:10542000B001B39FC001A39F700D811D1124911D78
:10543000B29F700D811D1124911D0895F894FFCF26
:10544000010000000300130016000B00310251069A
:10545000C3094103A20142003900720000000000AC
:10546000000000000000000000000000481A934EF9
:10547000A651B3AEE7C24920DCC3E01BDF367EE0B5
:105480001898656430A6AB8ECD16B4231E441572F1
:10549000053DAEC74DA24744385CB35DD7AB791725
:1054A000331D0B2CE32F11129925F70D49043902F6
:1054B0008000C10343FAF37BB4F48CB800AB5E0602
:1054C00036803D2D6BAD38DF6729CBFCFFFFFFFF3A
:1054D000FFFFFF03BD050C844B0B7347FF54A1F97D
:1054E000C97FC2D29452C72098D63403000000006E
:1054F00000000000406F0103E1D2C2DCD13F5568DB
:105500007EF29FB034A5D43108A635CD000000004E
:105510000000000043A8DDCDD8E3F746DDA220A3BC
:10552000EF0EF540310011000B002100C70779167E
:105530003F175912496E636F72726563742100657B
:1055400072726F7221005369676E61747572657350
:1055500020636F727265637421006974657261748F
:10556000696F6E732028696E206865782900253080
:105570003278200030005B005D200020737461638E
:105580006B2062797465730A004552524F523A207B
:02559000000019
:00000001FF
